:100000000C942A000C9447000C9447000C94470071
:100010000C9447000C9447000C9447000C94470044
:100020000C9447000C9447000C9425090C9447004D
:100030000C9447000C9449040C9447000C9447001E
:100040000C9447000C9447000C9447000C94470014
:100050000C94470011241FBECFE5D8E0DEBFCDBF12
:1000600011E0A0E6B0E0ECE3F9E102C005900D92EA
:10007000A83DB107D9F722E0A8EDB1E001C01D927B
:10008000AE3DB207E1F70E94EC070C949C0C0C9477
:1000900000009B01AC018AB188698AB980B5866885
:1000A00080BD84E0220F331F441F551F8A95D1F76E
:1000B00060E072E18AE790E00E9454098FEF820FBE
:1000C00089B9DA01C9010197A109B109892F9A2FCC
:1000D000AB2FBB2780BD08955F9BFECF8CB10895E9
:1000E0008CB95D9BFECF0895CF93DF93EC0189918E
:1000F000882319F00E947000FACFDF91CF91089504
:1001000085BB8BB38C7F8BBBDA9A82E08A95F1F743
:1001100000C0DA988FE697E10197F1F700C0000080
:10012000089585BBD9988BB385608BBB82E08A9597
:10013000F1F700C0DA988FEC97E00197F1F700C073
:10014000000008958AB387608ABB8FEF84BB8FE37A
:100150009CE90197F1F700C0000088E30E9480004D
:100160008CE00E94800086E00E94800081E00E9476
:10017000800080E80C948000CF93DF93EC0189919C
:10018000882319F00E949100FACFDF91CF91089552
:10019000CF93DF93EA01813021F4862F8F7080683E
:1001A00005C0823029F4862F8F70806C0E948000F9
:1001B000CE01DF91CF910C94BC0081E00C948000C3
:1001C000FC01680F791F80E048E1E617F70781F02E
:1001D000219198E0322F3827532F517030FD84271A
:1001E0008695513009F480682695915099F7EDCFA6
:1001F00008950F931F93CF93DF93CDB7DEB760972A
:100200000FB6F894DEBF0FBECDBF90E1E0E6F0E0A0
:10021000DE01119601900D929A95E1F7DB01EC91C8
:1002200011969C91F0E0F92B803179F4DF01AE7FDB
:10023000E3E0AA0FBB1FEA95E1F7FB019681ECE032
:10024000F0E0E91BF109EA0FFB1FF7FF07C091E09F
:10025000DA019C93F195E195F10902C0DA011C9253
:10026000883281F4DB0114968C91982F9076903629
:1002700049F086FF02C0EE7F05C085FF02C0EC7F1B
:1002800001C0E87FCF0144E0969587954A95E1F754
:10029000D9018C93EF70FF2781E090E08C0F9D1FB8
:1002A000E80FF91F8081D8018C9380E060960FB62B
:1002B000F894DEBF0FBECDBFDF91CF911F910F919C
:1002C0000895882319F0719561957109442319F0F7
:1002D000319521953109621773073CF081E090E078
:1002E0002617370724F080E008958FEF9FEF0895D9
:1002F0000F931F93CF93DF93EC018B01B80188819B
:100300000E941303888381508D3F30F4F80180816F
:10031000883211F0803191F7DF91CF911F910F91C9
:100320000895FF920F931F93CF93DF93CDB7DEB75E
:1003300029970FB6F894DEBF0FBECDBF8FEF898728
:100340000CED11E0F12C8985882301F182E0F8168B
:10035000E9F0BE016F5F7F4FCE0109960E947801E0
:1003600089858E5F823090F0FE01319620E030E08A
:100370008191D801A20FB31F8C932F5F3F4F28307C
:100380003105B1F7F394085F1F4FDDCF8F2D29960C
:100390000FB6F894DEBF0FBECDBFDF91CF911F9196
:1003A0000F91FF900895CF93DF93EC010E94CF024D
:1003B00081110FC0BE0184EB0E945A0381E00E94AC
:1003C000EB02C82F0E94CF0281E0C11103C080E080
:1003D00001C081E0DF91CF9108951F93CF93DF9308
:1003E000182FEB010E94CF0281110DC00E94C6029E
:1003F000882359F0BE0184E40E945A03113039F079
:100400000E94C90204C081E003C082E001C080E014
:10041000DF91CF911F9108954F925F926F927F92DB
:100420008F929F92AF92BF92CF92DF92EF92FF9204
:100430000F931F93CF93DF93CDB7DEB729970FB6F6
:10044000F894DEBF0FBECDBF6C015B014A0189018C
:100450000E94CF02811124C0B6018EEB0E945A0384
:10046000CE0101967C013E019AE0690E711C2701C4
:100470000E941003F70181937F01E615F705C1F78C
:1004800069E070E0C2010E94E00081110BC094019C
:10049000A501B201F60180810E94F90080E003C04D
:1004A00081E001C083E029960FB6F894DEBF0FBE4D
:1004B000CDBFDF91CF911F910F91FF90EF90DF9013
:1004C000CF90BF90AF909F908F907F906F905F90F4
:1004D0004F9008955F926F927F928F929F92AF920A
:1004E000BF92CF92DF92EF92FF920F931F93CF9321
:1004F000DF93CDB7DEB729970FB6F894DEBF0FBEF6
:10050000CDBF582E6B015A0189010E94CF02811183
:1005100024C060E070E08EEB0E945A03CE01019689
:100520007C014E019AE0890E911C37010E94100354
:10053000F70181937F01E815F905C1F769E070E0E3
:10054000C3010E94E00081110AC09501A601B30118
:10055000852D0E94F90080E003C081E001C083E0A6
:1005600029960FB6F894DEBF0FBECDBFDF91CF91B5
:100570001F910F91FF90EF90DF90CF90BF90AF90C1
:100580009F908F907F906F905F90089586B3827058
:100590000895C19AB99A0895C198B9980895C198D3
:1005A000B99A8FEB93E00197F1F700C000009FB775
:1005B000F894B998E0EBEA95F1F786B39FBFEBE3C7
:1005C000F3E03197F1F700C00000B19B02C08270E8
:1005D000089581E008959FB7F894B99A22E02A958A
:1005E000F1F700C08111B99828E22A95F1F7B19B83
:1005F00080E028E72A95F1F7B9989FBF0895CF9337
:10060000DF93C82FD8E08C2F81700E94EB02C69533
:100610008111C068D150B9F78C2FDF91CF91089527
:100620008FEF0C94FF02DF92EF92FF920F931F93D4
:10063000CF93DF93E82EEB010E94CF0281112FC0F0
:1006400080EF0E94FF02F12C10E488EFD82ED10E2B
:1006500081E00E94EB02082F81E00E94EB028823D8
:1006600019F0002361F01DC0011109C01E1528F00A
:10067000888180FF04C0E11611F0F12E01E0802F87
:100680000E94EB0298819695011190689883115011
:100690001D11DECF21961111D8CF8F2D03C08FEF02
:1006A00001C08EEFDF91CF911F910F91FF90EF90DE
:1006B000DF900895FF920F931F93CF93DF93F82E4F
:1006C000EB010E94CF02209769F085E50E94FF02AE
:1006D0008E01085F1F4F89910E94FF02C017D1074A
:1006E000D1F703C08CEC0E94FF028F2DDF91CF91D8
:1006F0001F910F91FF900C94FF020F931F93CF93C4
:10070000DF93CDB7DEB764970FB6F894DEBF0FBEA8
:10071000CDBF1092DC021092DB029F938F9380E793
:1007200090E09F938F938E010F5F1F4F1F930F9346
:100730000E94CB09C8010E9474000F900F900F9087
:100740000F900F900F9064960FB6F894DEBF0FBE17
:10075000CDBFDF91CF911F910F9108958CE790E06D
:100760000C947400CF93DF9300D000D0CDB7DEB7E8
:100770002FEF84E39CE0215080409040E1F700C0DF
:1007800000001092DC021092DB02E091DB02F0919B
:10079000DC02E351FE4F80818D3049F0E091DB02B5
:1007A000F091DC02E351FE4F80818A3051F4809158
:1007B000DB029091DC0201969093DC028093DB02D5
:1007C000E4CF60E970E08DEE91E00E94A909892BE9
:1007D00009F457C0E091DB02F091DC02E351FE4FD7
:1007E00080818C3251F08091DB029091DC02019685
:1007F0009093DC028093DB02EDCF8091DB0290913D
:10080000DC0201969093DC028093DB02FE013196BC
:10081000CF01A091DB02B091DC02A351BE4F2C911D
:100820002D3099F0A091DB02B091DC02A351BE4FB4
:100830002C9121932091DB023091DC022F5F3F4FFE
:100840003093DC022093DB02E4CF0E947609909380
:10085000DA018093D901EDEEF1E0DF010D90002087
:10086000E9F7AD01415051094D5E514060E070E043
:10087000CF010E9494091092DC021092DB0281E009
:1008800001C080E00F900F900F900F90DF91CF91FB
:1008900008951F920F920FB60F9211248F939F937A
:1008A000EF93FF93E091DB02F091DC028CB1E35116
:1008B000FE4F80838091DB029091DC020196909341
:1008C000DC028093DB0281E08093DB01FF91EF91FA
:1008D0009F918F910F900FBE0F901F901895EF92E0
:1008E000FF920F931F93CF93DF93CDB7DEB7A397FC
:1008F0000FB6F894DEBF0FBECDBF7B011092DC02B5
:100900001092DB029F938F9386E990E09F938F93E1
:100910008E010F5F1F4F1F930F930E94CB09C801D9
:100920000E9474002FEF81EE94E0215080409040AF
:10093000E1F700C000000F900F900F900F900F9004
:100940000F90E091DB02F091DC02E351FE4F8081D9
:100950008E3309F054C01092DC021092DB02EDEEEF
:10096000F1E0DF010D900020E9F7AD0141505109A0
:100970004D5E514060E070E0CF010E949409C701D4
:100980000E9474008AE10E947000BFEFE2E5F7E088
:10099000B150E040F040E1F700C000001092DC02EE
:1009A0001092DB02EDEEF1E0DF010D900020E9F79F
:1009B000AD01415051094D5E514060E070E0CF0102
:1009C0000E949409F80101900020E9F7AF0141501D
:1009D0005109401B510B60E070E0C8010E9494096E
:1009E0001092DB01A3960FB6F894DEBF0FBECDBF09
:1009F000DF91CF911F910F91FF90EF90089520917B
:100A0000DB023091DC022F5F3F4F3093DC022093FA
:100A1000DB0297CFCF93DF931092DC021092DB02C0
:100A2000E091DB02F091DC02E351FE4F80818D30DA
:100A300049F0E091DB02F091DC02E351FE4F80814E
:100A40008A3051F48091DB029091DC020196909300
:100A5000DC028093DB02E4CF80EC0E948000C0E0E7
:100A6000D0E0E091DB02F091DC02E351FE4F8081A7
:100A70008D30D1F0E091DB02F091DC02E351FE4FCA
:100A800080810E9491008091DB029091DC020196AE
:100A90009093DC028093DB022196CF30D10509F7D9
:100AA00080E80E948000DDCF1092DC021092DB0211
:100AB000EDEEF1E0DF010D900020E9F7AD014150CE
:100AC00051094D5E514060E070E0CF01DF91CF9160
:100AD0000C9494098F929F92AF92BF92CF92DF9223
:100AE000EF92FF920F931F93CF93DF9300D0CDB778
:100AF000DEB7E12CF12C9DEE892E91E0992EF401C8
:100B000001900020E9F78F01015011090D5E11409D
:100B100009F447C08FE99FE00197F1F700C000009A
:100B20009FEFE91AF90AF40101900020E9F73197E3
:100B3000ED5EF1400E171F07A1F58DEEC82E81E086
:100B4000D82EA12CB12CC6018D5E91408017910743
:100B500044F58A818983F60181916F018A8342E09D
:100B600050E064EA70E0CE0101960E949B09892B57
:100B700051F3C5010196F2E0AF16B10481F40F9074
:100B80000F90DF91CF911F910F91FF90EF90DF9029
:100B9000CF90BF90AF909F908F900C940A055C010E
:100BA000D2CF8FEC97E00197F1F700C000009FEFE4
:100BB000E91AF90AE0E6EE16EAEEFE0608F49FCF1F
:100BC0000F900F90DF91CF911F910F91FF90EF90B9
:100BD000DF90CF90BF90AF909F908F90089580EC62
:100BE0000E94800087EA90E00E9474002FEF84E367
:100BF0009CE0215080409040E1F700C000006DEA89
:100C000070E08DEE91E00E94A909892B09F47CC067
:100C10000E946A0580EAEDEEF1E0DF011D928A95FF
:100C2000E9F7BFEF29E688E1B15020408040E1F7C5
:100C300000C000000E94DD0040EB50E060E081E079
:100C40000E94C8009FEFA4E3BCE09150A040B040D8
:100C5000E1F700C0000080EC0E9480008EEB90E085
:100C60000E9474000E946A052FEF89E698E12150E6
:100C700080409040E1F700C000000E94DD0049EC98
:100C800050E060E081E00E94C800AFEFB4E32CE0E8
:100C9000A150B0402040E1F700C0000080EC0E946D
:100CA000800088ED90E00E9474000E946A058FEF3A
:100CB00099E6A8E181509040A040E1F700C0000013
:100CC0000E94DD0040EE50E060E081E00E94C8003C
:100CD000BFEF24E38CE0B15020408040E1F700C03A
:100CE000000080EC0E9480008FEE90E00E94740073
:100CF0000E946A059FEFA9E6B8E19150A040B0407C
:100D0000E1F700C00000089582E091E00E94BC007D
:100D100066CF0F931F93CF93DF932FEF84E39CE075
:100D2000215080409040E1F700C0000068E071E091
:100D30008DEE91E00E94A909892B39F44EE051E033
:100D400060E081E00E94C800B0C01092DC02109206
:100D5000DB02E091DB02F091DC02E351FE4F808187
:100D60008D3049F0E091DB02F091DC02E351FE4F5F
:100D700080818E3651F48091DB029091DC020196E5
:100D80009093DC028093DB02E4CFE091DB02F091F0
:100D9000DC02E351FE4F80818C3251F08091DB0206
:100DA0009091DC0201969093DC028093DB02EDCF00
:100DB0008091DB029091DC0202969093DC0280939A
:100DC000DB02E0E9F2E0A091DB02B091DC02A3518A
:100DD000BE4F8C9181938091DB029091DC02019651
:100DE0009093DC028093DB02A2E0EA39FA0759F71C
:100DF0008091DB029091DC0201969093DC0280935B
:100E0000DB02E091DB02F091DC02E451FE4F8081D5
:100E10008A3071F780EC0E9480000EE912E0C0E099
:100E2000D0E0E091DB02F091DC02E351FE4F8081E3
:100E30008D3039F1CF31D10521F1E091DB02F09114
:100E4000DC02E351FE4F80810E949100E091DB02C1
:100E5000F091DC02E351FE4F8081F80181938F0114
:100E60008091DB029091DC0201969093DC028093EA
:100E7000DB022196C031D105A1F680E80E948000F6
:100E8000D0CF1092DC021092DB02EDEEF1E0DF0138
:100E90000D900020E9F7AD01415051094D5E5140E0
:100EA00060E070E0CF010E9494091092DB01DF91B5
:100EB000CF911F910F9108950F931F93CF93DF93BD
:100EC000CDB7DEB72A970FB6F894DEBF0FBECDBF01
:100ED0009F938F9389E191E09F938F938E010F5F92
:100EE0001F4F1F930F930E94CB09C8010E947400EB
:100EF0000E9489060F900F900F900F900F900F9007
:100F00002A960FB6F894DEBF0FBECDBFDF91CF910A
:100F10001F910F910895DF92EF92FF920F931F930D
:100F2000CF93DF9300D000D0CDB7DEB7D82E80911D
:100F30008F02882319F045E251E002C047E251E0F8
:100F40006D2D82E00E94C8008091DA021F928F937B
:100F500009E211E01F930F937E0183E0E80EF11C7C
:100F6000FF92EF920E94CB0961E06D0DA70182E034
:100F70000E94C80063E06D0D4CE251E082E00E94E7
:100F8000C80080918D021F928F931F930F938E0143
:100F90000F5F1F4F1F930F930E94CB0964E06D0DED
:100FA000A80182E00E94C80066E06D0D4EE251E0AB
:100FB00082E00E94C8000FB6F894DEBF0FBECDBF1E
:100FC0000F900F900F900F90DF91CF911F910F9185
:100FD000FF90EF90DF900895CF93DF93CDB7DEB70A
:100FE000E2970FB6F894DEBF0FBECDBF1092DC02C1
:100FF0001092DB028CE3EEE9F2E0DF011D928A95AC
:10100000E9F70E94A20060E875E280E090E00E94AB
:10101000490083B7886083BF83B7856083BF8BE651
:101020008CBF89B7826089BF0E9491018093DD02E5
:10103000BFE72FE482E1B15020408040E1F700C0DB
:101040000000789440E351E060E081E00E94C80035
:101050009FEFADE3B9E49150A040B040E1F700C08C
:1010600000000E94DD0041E451E060E081E00E9468
:10107000C8000E94EF050E94DD002BE5E22E21E072
:10108000F22E8E010F5F1F4F3CE3C32E43E0D42EA0
:101090008091DB01813009F079C00E94B20388237E
:1010A00009F470C00E94DD0044E451E060E081E09A
:1010B0000E94C8002FEF89E698E1215080409040BF
:1010C000E1F700C000000E94DD008091D9019091FD
:1010D000DA010E945C07AFEFBDE329E4A150B04004
:1010E0002040E1F700C0000063E571E08EE992E086
:1010F0000E94A909892B69F190918D028091DA02F1
:101100001F929F931F928F931F929F931F928F9373
:10111000FF92EF921F930F930E94CB0942EB51E095
:1011200060E081E00E94C800B80180EC91E00E947C
:101130006F048FEF99E6A8E181509040A040E1F75D
:1011400000C000000E94DD000FB6F894DEBF0FBEA5
:10115000CDBF0E94DD008091D9019091DA010E94FB
:101160007D034AEC51E060E081E00E94C8000E94EB
:101170006A059FEFA9E6B8E19150A040B040E1F7C1
:1011800000C000001092DB010E94DD00EEE9F2E0F9
:10119000DF012C2D1D922A95E9F780918E0288237C
:1011A00009F476CF8091EC016D2D0E9448099111D0
:1011B0000BC0ECEDF1E0119281E0EC3EF807D9F7BD
:1011C0000E9491018093DD028091EC016D2D0E94BF
:1011D0004809913029F460E070E081E00E94ED015F
:1011E0008091EC016D2D0E944809923059F52DE84F
:1011F00032E04AED52E06FE872E08CED91E00E943F
:101200000C02811103C00E948B0706C042E051E02E
:1012100060E082E00E94C8002DE832E04AED52E032
:101220006FE872E084EE91E00E940C02811104C02C
:1012300089E00E948B0706C042E051E069E082E04D
:101240000E94C80010928E0223CF1F920F920FB6F9
:101250000F9211248F938091D8018F5F8093D801D2
:10126000843680F081E080938E028091EC018F5F64
:101270008093EC018091EC018C3310F01092EC0122
:101280001092D8018F910F900FBE0F901F9018955C
:10129000991B79E004C0991F961708F0961B881FC8
:1012A0007A95C9F780950895A1E21A2EAA1BBB1B57
:1012B000FD010DC0AA1FBB1FEE1FFF1FA217B30722
:1012C000E407F50720F0A21BB30BE40BF50B661F38
:1012D000771F881F991F1A9469F7609570958095FC
:1012E00090959B01AC01BD01CF010895FC018827B9
:1012F0009927E89421912032E9F3293010F02E301B
:10130000C8F32B3241F02D3239F4689404C00E94A6
:10131000C309820F911D219120532A30C0F31EF47E
:10132000909581959F4F0895DC0101C06D934150C8
:101330005040E0F70895FB01DC014150504030F08F
:101340008D910190801919F40020B9F7881B990B31
:101350000895FB0151915523A9F0BF01DC014D9186
:1013600045174111E1F759F4CD010190002049F0F2
:101370004D9140154111C9F3FB014111EFCF81E0BF
:1013800090E0019708957AE0979F902D879F802D98
:10139000910D11240895AEE0B0E0E1EDF9E00C9478
:1013A000730C0D891E8986E08C831A8309838FEF65
:1013B0009FE79E838D83AE01475E5F4F6F89788D77
:1013C000CE0101960E94ED09EF81F885E00FF11F33
:1013D00010822E96E4E00C948F0CACE0B0E0E3EFCA
:1013E000F9E00C94650C7C016B018A01FC01178209
:1013F0001682838181FFBDC1CE0101964C01F701A8
:101400009381F60193FD859193FF81916F0188236C
:1014100009F4ABC1853239F493FD859193FF819135
:101420006F01853229F4B70190E00E94D50BE7CF18
:10143000512C312C20E02032A0F48B3269F030F4B2
:10144000803259F0833269F420612CC08D3239F03A
:10145000803339F4216026C02260246023C02860D4
:1014600021C027FD27C030ED380F3A3078F426FF31
:1014700006C0FAE05F9E300D1124532E13C08AE09F
:10148000389E300D1124332E20620CC08E3221F490
:1014900026FD6BC1206406C08C3611F4206802C0A2
:1014A000883641F4F60193FD859193FF81916F0198
:1014B0008111C1CF982F9F7D9554933028F40C5FF4
:1014C0001F4FFFE3F9830DC0833631F0833771F08E
:1014D000833509F05BC022C0F801808189830E5FEB
:1014E0001F4F44244394512C540115C03801F2E09D
:1014F0006F0E711CF801A080B18026FF03C0652D1E
:1015000070E002C06FEF7FEFC5012C870E94CA0B0D
:101510002C0183012C852F77222E17C03801F2E091
:101520006F0E711CF801A080B18026FF03C0652DED
:1015300070E002C06FEF7FEFC5012C870E94BF0BE8
:101540002C012C852068222E830123FC1BC0832DB7
:1015500090E048165906B0F4B70180E290E00E948E
:10156000D50B3A94F4CFF50127FC859127FE8191A4
:101570005F01B70190E00E94D50B31103A94F1E081
:101580004F1A51084114510471F7E5C0843611F027
:10159000893639F5F80127FF07C0608171818281A2
:1015A00093810C5F1F4F08C060817181882777FD90
:1015B0008095982F0E5F1F4F2F76B22E97FF09C090
:1015C00090958095709561957F4F8F4F9F4F2068C4
:1015D000B22E2AE030E0A4010E94070CA82EA81821
:1015E00044C0853729F42F7EB22E2AE030E025C092
:1015F000F22FF97FBF2E8F36C1F018F4883579F0BD
:10160000B4C0803719F0883721F0AFC02F2F206188
:10161000B22EB4FE0DC08B2D8460B82E09C024FFFD
:101620000AC09F2F9660B92E06C028E030E005C0A2
:1016300020E130E002C020E132E0F801B7FE07C04F
:1016400060817181828193810C5F1F4F06C0608130
:10165000718180E090E00E5F1F4FA4010E94070C93
:10166000A82EA818FB2DFF77BF2EB6FE0BC02B2D82
:101670002E7FA51450F4B4FE0AC0B2FC08C02B2D76
:101680002E7E05C07A2C2B2D03C07A2C01C0752C20
:1016900024FF0DC0FE01EA0DF11D8081803311F49D
:1016A000297E09C022FF06C07394739404C0822F60
:1016B000867809F0739423FD13C020FF06C05A2CCE
:1016C000731418F4530C5718732C731468F4B7017F
:1016D00080E290E02C870E94D50B73942C85F5CF87
:1016E000731410F4371801C0312C24FF12C0B70155
:1016F00080E390E02C870E94D50B2C8522FF17C039
:1017000021FF03C088E590E002C088E790E0B701C0
:101710000CC0822F867859F021FD02C080E201C002
:101720008BE227FD8DE2B70190E00E94D50BA51456
:1017300038F4B70180E390E00E94D50B5A94F7CFBC
:10174000AA94F401EA0DF11D8081B70190E00E9496
:10175000D50BA110F5CF332009F451CEB70180E2AB
:1017600090E00E94D50B3A94F6CFF70186819781DD
:1017700002C08FEF9FEF2C96E2E10C94810CFC01EC
:101780000590615070400110D8F7809590958E0FAC
:101790009F1F0895FC016150704001900110D8F71F
:1017A000809590958E0F9F1F08950F931F93CF9351
:1017B000DF93182F092FEB018B8181FD03C08FEF81
:1017C0009FEF20C082FF10C04E815F812C813D8140
:1017D000421753077CF4E881F9819F012F5F3F4F47
:1017E00039832883108306C0E885F985812F099500
:1017F000892B29F72E813F812F5F3F4F3F832E8317
:10180000812F902FDF91CF911F910F910895FA01B1
:10181000AA27283051F1203181F1E8946F936E7F2F
:101820006E5F7F4F8F4F9F4FAF4FB1E03ED0B4E020
:101830003CD0670F781F891F9A1FA11D680F791F61
:101840008A1F911DA11D6A0F711D811D911DA11D72
:1018500020D009F468943F912AE0269F1124301982
:10186000305D3193DEF6CF010895462F4770405D1D
:101870004193B3E00FD0C9F7F6CF462F4F70405DCC
:101880004A3318F0495D31FD4052419302D0A9F727
:10189000EACFB4E0A6959795879577956795BA9521
:1018A000C9F700976105710508959B01AC010A2EE7
:1018B00006945795479537952795BA95C9F7620FBE
:1018C000731F841F951FA01D08952F923F924F9262
:1018D0005F926F927F928F929F92AF92BF92CF92C0
:1018E000DF92EF92FF920F931F93CF93DF93CDB7C9
:1018F000DEB7CA1BDB0B0FB6F894DEBF0FBECDBF41
:1019000009942A88398848885F846E847D848C8411
:101910009B84AA84B984C884DF80EE80FD800C811A
:101920001B81AA81B981CE0FD11D0FB6F894DEBFFD
:0C1930000FBECDBFED010895F894FFCF6D
:10193C000001010202030404050606070708090951
:10194C0041542B434D47443D25640D0041542B43DA
:10195C004D4744413D2244454C20414C4C220D0006
:10196C00434D54493A0041542B434D47533D222596
:10197C0073220D000D0A00415445300D004F4B00F1
:10198C00547279622074656B73746F77790041546B
:10199C002B434D47463D310D004A616B6F736320FD
:1019AC007379676E616C750041542B4353510D0074
:1019BC004B6F6D756E696B61747920736D7300413B
:1019CC00542B434E4D493D312C312C302C302C3185
:1019DC000D004572726F72002B434D4752004E6FD3
:1019EC00206D6573736167650041542B434D4752FD
:1019FC003D25640D002D0020002564002E004300C1
:101A0C005572756368616D69616E69652047534DE8
:101A1C00004154006E6F776120776961646F6D6F60
:101A2C00736300506F6D696172790054656D70203D
:101A3C007720736C6F6E63753A2025642C256420B7
:101A4C0043200A54656D702077206369656E697553
:101A5C003A2025642C25642043200A57696C676F53
:101A6C00746E6F73633A202E2E2E205248200A4338
:101A7C0069736E69656E69653A202E2E2E2068504A
:101A8C004100577973796C616E696520736D7300D1
:101A9C003739313237393430370055737577616ED9
:081AAC00696520736D730000F1
:00000001FF
