:100000000C942A000C9447000C9447000C94470071
:100010000C9447000C9447000C9447000C94470044
:100020000C9447000C9447000C9447000C94470034
:100030000C9447000C94AC010C9447000C944700BE
:100040000C9447000C9447000C9447000C94470014
:100050000C94470011241FBECFE5D8E0DEBFCDBF12
:1000600011E0A0E6B0E0E0EBF1E102C005900D92F6
:10007000AA36B107D9F722E0AAE6B1E001C01D9285
:10008000A935B207E1F70E94EE040C94D6080C944F
:10009000000085BB8BB38C7F8BBBDA9A82E08A959C
:1000A000F1F700C0DA988FE697E10197F1F700C009
:1000B0000000089585BBD9988BB385608BBB82E027
:1000C0008A95F1F700C0DA988FEC97E00197F1F785
:1000D00000C0000008958AB387608ABB8FEF84BB9D
:1000E0008FE39CE90197F1F700C0000088E30E94CC
:1000F00049008CE00E94490086E00E94490081E0AE
:100100000E94490080E80C944900CF93DF93EC01F2
:100110008991882319F00E945A00FACFDF91CF917C
:100120000895CF93DF93EA01813021F4862F8F70F9
:10013000806805C0823029F4862F8F70806C0E9401
:100140004900CE01DF91CF910C94850081E00C94A1
:1001500049009B01AC018AB188698AB980B586687B
:1001600080BD84E0220F331F441F551F8A95D1F7AD
:1001700060E072E18AE790E00E948E058FEF820FC7
:1001800089B9DA01C9010197A109B109892F9A2F0B
:10019000AB2FBB2780BD08955F9BFECF8CB1089528
:1001A0008CB95D9BFECF0895CF93DF93EC018991CD
:1001B000882319F00E94D000FACFDF91CF910895E3
:1001C0000F931F93CF93DF93CDB7DEB764970FB62E
:1001D000F894DEBF0FBECDBF1092580210925702A6
:1001E0009F938F9380E690E09F938F938E010F5F94
:1001F0001F4F1F930F930E940506C8010E94D40051
:100200000F900F900F900F900F900F9064960FB675
:10021000F894DEBF0FBECDBFDF91CF911F910F913C
:1002200008958CE690E00C94D400CF93DF9300D037
:1002300000D0CDB7DEB72FEF84E39CE021508040A3
:100240009040E1F700C0000010925802109257024F
:10025000E0915702F0915802E359FE4F80818D30B2
:1002600049F0E0915702F0915802E359FE4F808126
:100270008A3051F4809157029091580201969093E0
:10028000580280935702E4CF60E870E08DE691E079
:100290000E94E305892B09F457C0E0915702F091C1
:1002A0005802E359FE4F80818C3251F08091570201
:1002B0009091580201969093580280935702EDCF87
:1002C0008091570290915802019690935802809322
:1002D0005702FE013196CF01A0915702B09158020A
:1002E000A359BE4F2C912D3099F0A0915702B09197
:1002F0005802A359BE4F2C9121932091570230915F
:1003000058022F5F3F4F3093580220935702E4CF9B
:100310000E94B00590936B0180936A01EDE6F1E0D5
:10032000DF010D900020E9F7AD01415051094D5614
:10033000514060E070E0CF010E94CE05109258025B
:100340001092570281E001C080E00F900F900F9053
:100350000F90DF91CF9108951F920F920FB60F92D9
:1003600011248F939F93EF93FF93E0915702F091A5
:1003700058028CB1E359FE4F8083809157029091CF
:1003800058020196909358028093570281E080931F
:100390006C01FF91EF919F918F910F900FBE0F9085
:1003A0001F901895EF92FF920F931F93CF93DF93B7
:1003B000CDB7DEB7A3970FB6F894DEBF0FBECDBFA3
:1003C0007B0110925802109257029F938F9386E8F8
:1003D00090E09F938F938E010F5F1F4F1F930F939A
:1003E0000E940506C8010E94D4002FEF81EE94E020
:1003F000215080409040E1F700C000000F900F9026
:100400000F900F900F900F90E0915702F0915802CB
:10041000E359FE4F80818E3309F054C01092580288
:1004200010925702EDE6F1E0DF010D900020E9F7B0
:10043000AD01415051094D56514060E070E0CF018F
:100440000E94CE05C7010E94D4008AE10E94D0001C
:10045000BFEFE2E5F7E0B150E040F040E1F700C067
:1004600000001092580210925702EDE6F1E0DF0111
:100470000D900020E9F7AD01415051094D56514012
:1004800060E070E0CF010E94CE05F80101900020ED
:10049000E9F7AF0141505109401B510B60E070E09A
:1004A000C8010E94CE0510926C01A3960FB6F89475
:1004B000DEBF0FBECDBFDF91CF911F910F91FF9097
:1004C000EF90089520915702309158022F5F3F4FCF
:1004D000309358022093570297CFCF93DF93109217
:1004E000580210925702E0915702F0915802E359D6
:1004F000FE4F80818D3049F0E0915702F091580213
:10050000E359FE4F80818A3051F4809157029091D7
:10051000580201969093580280935702E4CF80ECE2
:100520000E944900C0E0D0E0E0915702F0915802EB
:10053000E359FE4F80818D30D1F0E0915702F09168
:100540005802E359FE4F80810E945A008091570261
:1005500090915802019690935802809357022196E9
:10056000CF30D10509F780E80E944900DDCF109215
:10057000580210925702EDE6F1E0DF010D900020E5
:10058000E9F7AD01415051094D56514060E070E02E
:10059000CF01DF91CF910C94CE058F929F92AF92B5
:1005A000BF92CF92DF92EF92FF920F931F93CF9360
:1005B000DF9300D0CDB7DEB7E12CF12C9DE6892E7C
:1005C00091E0992EF40101900020E9F78F0101508C
:1005D00011090D56114009F447C08FE99FE00197BA
:1005E000F1F700C000009FEFE91AF90AF401019049
:1005F0000020E9F73197ED56F1400E171F07A1F5DE
:100600008DE6C82E81E0D82EA12CB12CC6018D56C6
:1006100091408017910744F58A818983F601819181
:100620006F018A8342E050E064E970E0CE010196F8
:100630000E94D505892B51F3C5010196F2E0AF1652
:10064000B10481F40F900F90DF91CF911F910F9122
:10065000FF90EF90DF90CF90BF90AF909F908F90E2
:100660000C946D025C01D2CF8FEC97E00197F1F70B
:1006700000C000009FEFE91AF90AE0E6EE16EAEE84
:10068000FE0608F49FCF0F900F90DF91CF911F913E
:100690000F91FF90EF90DF90CF90BF90AF909F9021
:1006A0008F90089580EC0E94490087E990E00E94B5
:1006B000D4002FEF84E39CE0215080409040E1F78C
:1006C00000C000006DE970E08DE691E00E94E30556
:1006D000892B09F47CC00E94CD0280EAEDE6F1E0AE
:1006E000DF011D928A95E9F7BFEF29E688E1B15055
:1006F00020408040E1F700C000000E94A60040EAD0
:1007000050E060E081E00E9491009FEFA4E3BCE034
:100710009150A040B040E1F700C0000080EC0E9482
:1007200049008EEA90E00E94D4000E94CD022FEF93
:1007300089E698E1215080409040E1F700C0000038
:100740000E94A60049EB50E060E081E00E94910029
:10075000AFEFB4E32CE0A150B0402040E1F700C07F
:10076000000080EC0E94490088EC90E00E94D400D8
:100770000E94CD028FEF99E6A8E181509040A04001
:10078000E1F700C000000E94A60040ED50E060E0EC
:1007900081E00E949100BFEF24E38CE0B150204043
:1007A0008040E1F700C0000080EC0E9449008FED1E
:1007B00090E00E94D4000E94CD029FEFA9E6B8E12C
:1007C0009150A040B040E1F700C00000089582EFD2
:1007D00090E00E94850066CF0F931F93CF93DF9325
:1007E0002FEF84E39CE0215080409040E1F700C06F
:1007F000000068EF70E08DE691E00E94E305892B30
:1008000039F44EEF50E060E081E00E949100B0C00A
:100810001092580210925702E0915702F09158023C
:10082000E359FE4F80818D3049F0E0915702F091FD
:100830005802E359FE4F80818E3651F48091570261
:100840009091580201969093580280935702E4CFFA
:10085000E0915702F0915802E359FE4F80818C32AB
:1008600051F080915702909158020196909358024E
:1008700080935702EDCF80915702909158020296D3
:100880009093580280935702EDE0F2E0A091570256
:10089000B0915802A359BE4F8C9181938091570219
:1008A0009091580201969093580280935702A2E0CB
:1008B000E731FA0759F78091570290915802019653
:1008C0009093580280935702E0915702F09158029A
:1008D000E459FE4F80818A3071F780EC0E94490014
:1008E0000BE112E0C0E0D0E0E0915702F091580235
:1008F000E359FE4F80818D3039F1CF31D10521F19F
:10090000E0915702F0915802E359FE4F80810E9416
:100910005A00E0915702F0915802E359FE4F80814E
:10092000F80181938F0180915702909158020196AE
:1009300090935802809357022196C031D105A1F6B9
:1009400080E80E944900D0CF1092580210925702BE
:10095000EDE6F1E0DF010D900020E9F7AD01415037
:1009600051094D56514060E070E0CF010E94CE0524
:1009700010926C01DF91CF911F910F9108950F9309
:100980001F93CF93DF93CDB7DEB72A970FB6F894B6
:10099000DEBF0FBECDBF9F938F9389E091E09F9301
:1009A0008F938E010F5F1F4F1F930F930E940506B9
:1009B000C8010E94D4000E94EC030F900F900F908A
:1009C0000F900F900F902A960FB6F894DEBF0FBECF
:1009D000CDBFDF91CF911F910F91089510925802D2
:1009E000109257028CE3EBE1F2E0DF011D928A9551
:1009F000E9F70E946B0060E875E280E090E00E94F9
:100A0000A900789445E151E060E081E00E94910006
:100A1000BFEF2DE389E4B15020408040E1F700C0F2
:100A200000000E94A60046E251E060E081E00E94E2
:100A300091000E9452030E94A600CCE380916C01B9
:100A4000813009F05DC00E941501882309F454C06B
:100A50000E94A60049E251E060E081E00E9491001E
:100A60009FEFA9E6B8E19150A040B040E1F700C087
:100A700000000E94A60080916A0190916B010E9483
:100A8000BF042FEF8DE399E4215080409040E1F7BF
:100A900000C0000068E371E08BE192E00E94E30592
:100AA000892B89F040E451E060E081E00E949100F0
:100AB000AFEFB9E628E1A150B0402040E1F700C017
:100AC00000000E94A6000E94A60080916A019091F9
:100AD0006B010E94E0004EE451E060E081E00E9482
:100AE00091000E94CD028FEF99E6A8E181509040DD
:100AF000A040E1F700C0000010926C010E94A60027
:100B00004BE551E060E081E00E949100EBE1F2E012
:100B1000DF012C2F1D922A95E9F790CFA1E21A2E22
:100B2000AA1BBB1BFD010DC0AA1FBB1FEE1FFF1F91
:100B3000A217B307E407F50720F0A21BB30BE40BE1
:100B4000F50B661F771F881F991F1A9469F7609528
:100B50007095809590959B01AC01BD01CF010895E2
:100B6000FC0188279927E89421912032E9F3293064
:100B700010F02E30C8F32B3241F02D3239F4689446
:100B800004C00E94FD05820F911D219120532A303F
:100B9000C0F31EF4909581959F4F0895DC0101C02C
:100BA0006D9341505040E0F70895FB01DC01415046
:100BB000504030F08D910190801919F40020B9F760
:100BC000881B990B0895FB0151915523A9F0BF0192
:100BD000DC014D9145174111E1F759F4CD01019028
:100BE000002049F04D9140154111C9F3FB0141111D
:100BF000EFCF81E090E0019708957AE0979F902DE4
:100C0000879F802D910D11240895AEE0B0E0EBE0B8
:100C1000F6E00C94AD080D891E8986E08C831A835A
:100C200009838FEF9FE79E838D83AE01475E5F4F01
:100C30006F89788DCE0101960E942706EF81F88595
:100C4000E00FF11F10822E96E4E00C94C908ACE08E
:100C5000B0E0EDE2F6E00C949F087C016B018A01A4
:100C6000FC0117821682838181FFBDC1CE010196EE
:100C70004C01F7019381F60193FD859193FF8191DA
:100C80006F01882309F4ABC1853239F493FD859156
:100C900093FF81916F01853229F4B70190E00E94A2
:100CA0000F08E7CF512C312C20E02032A0F48B32FA
:100CB00069F030F4803259F0833269F420612CC03D
:100CC0008D3239F0803339F4216026C022602460EF
:100CD00023C0286021C027FD27C030ED380F3A30EF
:100CE00078F426FF06C0FAE05F9E300D1124532EE3
:100CF00013C08AE0389E300D1124332E20620CC0C0
:100D00008E3221F426FD6BC1206406C08C3611F4AE
:100D1000206802C0883641F4F60193FD859193FF67
:100D200081916F018111C1CF982F9F7D9554933090
:100D300028F40C5F1F4FFFE3F9830DC0833631F0B9
:100D4000833771F0833509F05BC022C0F8018081E0
:100D500089830E5F1F4F44244394512C540115C0C6
:100D60003801F2E06F0E711CF801A080B18026FFFF
:100D700003C0652D70E002C06FEF7FEFC5012C87C7
:100D80000E9404082C0183012C852F77222E17C086
:100D90003801F2E06F0E711CF801A080B18026FFCF
:100DA00003C0652D70E002C06FEF7FEFC5012C8797
:100DB0000E94F9072C012C852068222E830123FC38
:100DC0001BC0832D90E048165906B0F4B70180E2AD
:100DD00090E00E940F083A94F4CFF50127FC85912A
:100DE00027FE81915F01B70190E00E940F0831104A
:100DF0003A94F1E04F1A51084114510471F7E5C0DB
:100E0000843611F0893639F5F80127FF07C0608173
:100E10007181828193810C5F1F4F08C06081718155
:100E2000882777FD8095982F0E5F1F4F2F76B22E63
:100E300097FF09C090958095709561957F4F8F4F72
:100E40009F4F2068B22E2AE030E0A4010E944108A2
:100E5000A82EA81844C0853729F42F7EB22E2AE088
:100E600030E025C0F22FF97FBF2E8F36C1F018F485
:100E7000883579F0B4C0803719F0883721F0AFC0D9
:100E80002F2F2061B22EB4FE0DC08B2D8460B82EA2
:100E900009C024FF0AC09F2F9660B92E06C028E023
:100EA00030E005C020E130E002C020E132E0F8018E
:100EB000B7FE07C060817181828193810C5F1F4FF3
:100EC00006C06081718180E090E00E5F1F4FA40139
:100ED0000E944108A82EA818FB2DFF77BF2EB6FE52
:100EE0000BC02B2D2E7FA51450F4B4FE0AC0B2FC0B
:100EF00008C02B2D2E7E05C07A2C2B2D03C07A2CFA
:100F000001C0752C24FF0DC0FE01EA0DF11D80818A
:100F1000803311F4297E09C022FF06C073947394B4
:100F200004C0822F867809F0739423FD13C020FF3C
:100F300006C05A2C731418F4530C5718732C7314DE
:100F400068F4B70180E290E02C870E940F08739448
:100F50002C85F5CF731410F4371801C0312C24FF01
:100F600012C0B70180E390E02C870E940F082C8507
:100F700022FF17C021FF03C088E590E002C088E788
:100F800090E0B7010CC0822F867859F021FD02C095
:100F900080E201C08BE227FD8DE2B70190E00E9464
:100FA0000F08A51438F4B70180E390E00E940F0801
:100FB0005A94F7CFAA94F401EA0DF11D8081B7018C
:100FC00090E00E940F08A110F5CF332009F451CE14
:100FD000B70180E290E00E940F083A94F6CFF70143
:100FE0008681978102C08FEF9FEF2C96E2E10C94EF
:100FF000BB08FC010590615070400110D8F7809546
:1010000090958E0F9F1F0895FC01615070400190D4
:101010000110D8F7809590958E0F9F1F08950F931C
:101020001F93CF93DF93182F092FEB018B8181FD45
:1010300003C08FEF9FEF20C082FF10C04E815F8101
:101040002C813D81421753077CF4E881F9819F018F
:101050002F5F3F4F39832883108306C0E885F985C9
:10106000812F0995892B29F72E813F812F5F3F4FD3
:101070003F832E83812F902FDF91CF911F910F916E
:101080000895FA01AA27283051F1203181F1E8941E
:101090006F936E7F6E5F7F4F8F4F9F4FAF4FB1E06B
:1010A0003ED0B4E03CD0670F781F891F9A1FA11D66
:1010B000680F791F8A1F911DA11D6A0F711D811D67
:1010C000911DA11D20D009F468943F912AE0269F2C
:1010D00011243019305D3193DEF6CF010895462F8B
:1010E0004770405D4193B3E00FD0C9F7F6CF462F6C
:1010F0004F70405D4A3318F0495D31FD40524193D5
:1011000002D0A9F7EACFB4E0A69597958795779591
:101110006795BA95C9F700976105710508959B0118
:10112000AC010A2E06945795479537952795BA95A1
:10113000C9F7620F731F841F951FA01D08952F927A
:101140003F924F925F926F927F928F929F92AF9257
:10115000BF92CF92DF92EF92FF920F931F93CF93A4
:10116000DF93CDB7DEB7CA1BDB0B0FB6F894DEBF3B
:101170000FBECDBF09942A88398848885F846E8461
:101180007D848C849B84AA84B984C884DF80EE80AB
:10119000FD800C811B81AA81B981CE0FD11D0FB6B4
:1011A000F894DEBF0FBECDBFED010895F894FFCFD8
:1011B00041542B434D47443D25640D0041542B437E
:1011C0004D4744413D2244454C20414C4C220D00AA
:1011D000434D54493A0041542B434D47533D22253A
:1011E00073220D000D0A00415445300D004F4B0095
:1011F000547279622074656B73746F77790041540F
:101200002B434D47463D310D004A616B6F736320A0
:101210007379676E616C750041542B4353510D0017
:101220004B6F6D756E696B61747920736D730041DE
:10123000542B434E4D493D312C312C302C302C3128
:101240000D004572726F72002B434D4752004E6F76
:10125000206D6573736167650041542B434D4752A0
:101260003D25640D005572756368616D69616E6935
:10127000652047534D004154006E6F7761207769B8
:1012800061646F6D6F736300506F6D696172790097
:10129000577973796C616E696520736D730055734E
:1012A0007577616E696520736D73004F637A656B46
:0A12B0006977616E69652E2E2E002D
:00000001FF
