:100000000C942A000C9447000C9447000C94470071
:100010000C9447000C9447000C9447000C94470044
:100020000C9447000C9447000C94020D0C9447006C
:100030000C9447000C94250D0C9447000C94470039
:100040000C9447000C9447000C9447000C94470014
:100050000C94470011241FBECFE5D8E0DEBFCDBF12
:1000600011E0A0E6B0E0E6E7F2E202C005900D92F2
:10007000AE38B107D9F722E0AEE8B1E001C01D9279
:10008000AC3CB207E1F70E94650B0C9439110C945B
:1000900000009B01AC018AB188698AB980B5866885
:1000A00080BD84E0220F331F441F551F8A95D1F76E
:1000B00060E070EC88EA90E00E947B0D8FEF820F89
:1000C00089B9DA01C9010197A109B109892F9A2FCC
:1000D000AB2FBB2780BD08955F9BFECF8CB10895E9
:1000E0008CB95D9BFECF0895CF93DF93EC0189918E
:1000F000882319F00E947000FACFDF91CF91089504
:100100008BBB85B38F7385BBAD9A84E08A95F1F77D
:10011000AD9886E690E20197F1F7000008958BBB59
:10012000AE9885B3806A85BB84E08A95F1F7AD9877
:100130008CEC9AE00197F1F700C00000089584B3B9
:10014000806E84BB8FEF8ABB8FEF97ED0197F1F73D
:1001500000C0000088E30E9480008CE00E948000C4
:1001600086E00E94800081E00E94800080E80C947C
:100170008000CF93DF93EC018991882319F00E94CE
:100180008F00FACFDF91CF910895CF93DF93EA01EB
:10019000813021F4862F8F70806805C0823029F469
:1001A000862F8F70806C0E948000CE01DF91CF91EE
:1001B0000C94B90081E00C948000BC0183E39BE2C5
:1001C0000E94670D862F603138F07727CB0140976A
:1001D00097FD01969595879580B9089584EA86BF25
:1001E00006B607FEFDCF089584E986BF06B604FC77
:1001F000FDCF089583B984E886BF06B607FEFDCF1C
:10020000089520E4829FC0011124846886BF06B649
:1002100007FEFDCF83B10895EF92FF921F93CF9316
:10022000DF9300D000D0CDB7DEB7142F2B833C83F3
:100230006A8389830E94EE0089810E94FA006A81A4
:10024000862F0E94FA002B81E22E3C81F32E120FA2
:100250001E1531F0F70181917F010E94FA00F8CF5D
:100260000F900F900F900F90DF91CF911F91FF9003
:10027000EF900C94F400EF92FF921F93CF93DF93D3
:1002800000D01F92CDB7DEB7F82E142F2A833B8300
:1002900069830E94EE008F2D0E94FA006981862FEB
:1002A0000E94FA000E94EE0081E08F0D0E94FA0089
:1002B00011502A81E22E3B81F32E1F3F59F081E03D
:1002C000111101C080E00E940101F70181937F01BB
:1002D0001150F3CF0F900F900F90DF91CF911F919E
:1002E000FF90EF900C94F400CF93DF93CDB7DEB77F
:1002F00066970FB6F894DEBF0FBECDBF9E012F5F8D
:100300003F4F46E150E06AEA70E08EEE90E00E94D6
:100310003B01898190E0982F88272A81822B909336
:100320009E0180939D018B8190E0982F88272C81DE
:10033000822B9093B0018093AF018D8190E0982F34
:1003400088272E81822B9093B2018093B1018F81F7
:1003500090E0982F88272885822B9093AC0180937A
:10036000AB01898590E0982F88272A85822B90936E
:10037000A6018093A5018B8590E0982F88272C8576
:10038000822B9093A00180939F018D8590E0982F00
:1003900088272E85822B9093BA018093B9018F858F
:1003A00090E0982F88272889822B9093B40180931E
:1003B000B301898990E0982F88272A89822B90930E
:1003C000AE018093AD018B8990E0982F88272C890E
:1003D000822B9093BC018093BB018D8990E0982F74
:1003E00088272E89822B90939C0180939B0166968F
:1003F0000FB6F894DEBF0FBECDBFDF91CF91089549
:10040000CF93DF9300D01F92CDB7DEB78EE28B8300
:100410009E012D5F3F4F41E050E064EF70E08EEEB3
:1004200090E00E940C018FEF95E30197F1F700C077
:1004300000009E012F5F3F4F42E050E066EF70E00A
:100440008EEE90E00E943B01898190E0A0E0B0E058
:10045000BA2FA92F982F88272A81822B8093B50144
:100460009093B601A093B701B093B8010F900F908D
:100470000F90DF91CF910895CF93DF9300D000D0FC
:10048000CDB7DEB784EF8C839E012C5F3F4F41E0F8
:1004900050E064EF70E08EEE90E00E940C0123EAE1
:1004A00080EE90E0215080409040E1F700C00000D5
:1004B0009E012F5F3F4F43E050E066EF70E08EEE0D
:1004C00090E00E943B0129818A8190E0A0E0B0E0A9
:1004D000BA2FA92F982F8827A22B2B81822B55E08A
:1004E000B595A795979587955A95D1F78093A101D2
:1004F0009093A201A093A301B093A4010F900F9039
:100500000F900F90DF91CF910895CF92DF92EF92ED
:10051000FF920E94000280919F019091A001209182
:10052000B5013091B6014091B7015091B801281B37
:10053000390B41095109A091A501B091A6010E9472
:10054000BC0D6B017C016FE0F594E794D794C794E0
:100550006A95D1F76091BB017091BC01882777FD46
:100560008095982FEBE0660F771F881F991FEA95FB
:10057000D1F720919B0130919C01442737FD409594
:10058000542F2C0D3D1D4E1D5F1D0E949D0D2C0DE9
:100590003D1D4E1D5F1D2093A7013093A801409380
:1005A000A9015093AA01CA01B901685F7F4F8F4F1B
:1005B0009F4FF4E09595879577956795FA95D1F7D4
:1005C000FF90EF90DF90CF9008954F925F926F92DF
:1005D0007F928F929F92AF92BF92CF92DF92EF92D3
:1005E000FF920F931F93CF93DF9300D000D0CDB72E
:1005F000DEB70E943C028090A7019090A801A090D5
:10060000A901B090AA0180EA881A8FE0980AA1088F
:10061000B108A5019401C501B4010E944B0D2B0145
:100620003C0100919D0110919E01A091B101B091FA
:10063000B2010E94C70D6B017C013DE0F594E79487
:10064000D794C7943A95D1F7A091B901B091BA0166
:10065000A30192016CE055954795379527956A95CA
:10066000D1F70E94C70DBB2797FDB095AB2FC80EE1
:10067000D91EEA1EFB1E92E0C90ED11CE11CF11C22
:10068000F2E0F594E794D794C794FA95D1F7A0E8EF
:10069000DA0EE11CF11CA091AB01B091AC01A701F5
:1006A00096010E94BC0DDC01CB012FE0B695A79509
:1006B000979587952A95D1F789839A83AB83BC83D5
:1006C0006801EE24D7FCE094FE2C32E0CC0CDD1C5B
:1006D000EE1CFF1C3A95D1F7A091B301B091B40183
:1006E000A30192010E94C70D2B013C0147E17594C3
:1006F0006794579447944A95D1F7A091AF01B09170
:10070000B001A50194010E94C70D5BE09595879506
:10071000779567955A95D1F7460E571E681E791E34
:10072000C40CD51CE61CF71CCC0CDD1CEE1CFF1CFD
:100730002091A1013091A2014091A3015091A40107
:100740002C193D094E095F09AAE6B8E10E94BC0DCB
:1007500097FD0DC0660F771F881F991F29813A8169
:100760004B815C810E947B0D49015A010CC029819B
:100770003A814B815C810E947B0D49015A01880CB2
:10078000991CAA1CBB1C9927B7FC9A958B2D7A2D16
:10079000692D9B01AC010E944B0D9B01AC01AEED9C
:1007A000BBE00E94BC0D6C01FF24D7FCF094EF2C41
:1007B000A3E4B3EEA50194010E94CA0DBB2797FDE7
:1007C000B095AB2FC80ED91EEA1EFB1E9FECC90EBA
:1007D0009EE0D91EE11CF11C04E0F594E794D79447
:1007E000C7940A95D1F7C80CD91CEA1CFB1CC70199
:1007F000B6010F900F900F900F90DF91CF911F9146
:100800000F91FF90EF90DF90CF90BF90AF909F90AF
:100810008F907F906F905F904F900895FC01680FCC
:10082000791F80E048E1E617F70781F0219198E011
:10083000322F3827532F517030FD84278695513041
:1008400009F480682695915099F7EDCF08950F939C
:100850001F93CF93DF93CDB7DEB760970FB6F894B1
:10086000DEBF0FBECDBF90E1E0E6F0E0DE01119605
:1008700001900D929A95E1F7DB01EC9111969C9114
:10088000F0E0F92B803179F4DF01AE7FE3E0AA0FCD
:10089000BB1FEA95E1F7FB019681ECE0F0E0E91B74
:1008A000F109EA0FFB1FF7FF07C091E0DA019C9303
:1008B000F195E195F10902C0DA011C92883281F4C8
:1008C000DB0114968C91982F9076903649F086FF34
:1008D00002C0EE7F05C085FF02C0EC7F01C0E87F4B
:1008E000CF0144E0969587954A95E1F7D9018C931D
:1008F000EF70FF2781E090E08C0F9D1FE80FF91F3C
:100900008081D8018C9380E060960FB6F894DEBFAA
:100910000FBECDBFDF91CF911F910F910895882316
:1009200019F0719561957109442319F0319521955C
:100930003109621773073CF081E090E02617370712
:1009400024F080E008958FEF9FEF08950F931F9399
:10095000CF93DF93EC018B01B80188810E943F06A1
:10096000888381508D3F30F4F8018081883211F006
:10097000803191F7DF91CF911F910F910895FF92F0
:100980000F931F93CF93DF93CDB7DEB729970FB6A1
:10099000F894DEBF0FBECDBF8FEF89870DEB11E05E
:1009A000F12C8985882301F182E0F816E9F0BE0177
:1009B0006F5F7F4FCE0109960E94A60489858E5FE6
:1009C000823090F0FE01319620E030E08191D80134
:1009D000A20FB31F8C932F5F3F4F28303105B1F723
:1009E000F394085F1F4FDDCF8F2D29960FB6F89433
:1009F000DEBF0FBECDBFDF91CF911F910F91FF9052
:100A00000895CF93DF93EC010E94FD0581110FC083
:100A1000BE0184EB0E94860681E00E941706C82F63
:100A20000E94FD0581E0C11103C080E001C081E0AA
:100A3000DF91CF9108951F93CF93DF93182FEB0190
:100A40000E94FD0581110DC00E94F405882359F014
:100A5000BE0184E40E948606113039F00E94F70539
:100A600004C081E003C082E001C080E0DF91CF914B
:100A70001F9108954F925F926F927F928F929F92F3
:100A8000AF92BF92CF92DF92EF92FF920F931F939C
:100A9000CF93DF93CDB7DEB729970FB6F894DEBFBB
:100AA0000FBECDBF6C015B014A0189010E94FD05AB
:100AB000811124C0B6018EEB0E948606CE010196FC
:100AC0007C013E019AE0690E711C27010E943C06E0
:100AD000F70181937F01E615F705C1F769E070E042
:100AE000C2010E940E0481110BC09401A501B20144
:100AF000F60180810E94270480E003C081E001C0EC
:100B000083E029960FB6F894DEBF0FBECDBFDF910C
:100B1000CF911F910F91FF90EF90DF90CF90BF90FA
:100B2000AF909F908F907F906F905F904F900895BF
:100B30005F926F927F928F929F92AF92BF92CF926D
:100B4000DF92EF92FF920F931F93CF93DF93CDB776
:100B5000DEB729970FB6F894DEBF0FBECDBF582E73
:100B60006B015A0189010E94FD05811124C060E0DA
:100B700070E08EEB0E948606CE0101967C014E014C
:100B80009AE0890E911C37010E943C06F70181937F
:100B90007F01E815F905C1F769E070E0C3010E9423
:100BA0000E0481110AC09501A601B301852D0E9492
:100BB000270480E003C081E001C083E029960FB6DE
:100BC000F894DEBF0FBECDBFDF91CF911F910F9183
:100BD000FF90EF90DF90CF90BF90AF909F908F905D
:100BE0007F906F905F90089586B382700895C19A48
:100BF000B99A0895C198B9980895C198B99A8FE2A1
:100C000095E00197F1F79FB7F894B998E3EFEA956B
:100C1000F1F7000086B39FBFE8E7F4E03197F1F702
:100C200000C0B19B02C08270089581E008959FB713
:100C3000F894B99A24E02A95F1F78111B99827E33D
:100C40002A95F1F70000B19B80E026EA2A95F1F79A
:100C5000B9989FBF0895CF93DF93C82FD8E08C2F0A
:100C600081700E941706C6958111C068D150B9F7EE
:100C70008C2FDF91CF9108958FEF0C942B06DF928C
:100C8000EF92FF920F931F93CF93DF93E82EEB0128
:100C90000E94FD0581112FC080EF0E942B06F12CD0
:100CA00010E488EFD82ED10E81E00E941706082F9D
:100CB00081E00E941706882319F0002361F01DC00F
:100CC000011109C01E1528F0888180FF04C0E116BB
:100CD00011F0F12E01E0802F0E9417069881969561
:100CE00001119068988311501D11DECF21961111CA
:100CF000D8CF8F2D03C08FEF01C08EEFDF91CF9142
:100D00001F910F91FF90EF90DF900895FF920F9346
:100D10001F93CF93DF93F82EEB010E94FD052097E0
:100D200069F085E50E942B068E01085F1F4F8991AF
:100D30000E942B06C017D107D1F703C08CEC0E948C
:100D40002B068F2DDF91CF911F910F91FF900C9467
:100D50002B06CF93DF9300D000D0CDB7DEB72FEFB7
:100D60008FED90E1215080409040E1F700C00000FD
:100D70001092C5021092C402E091C402F091C50223
:100D8000E253FE4F80818D3049F0E091C402F09132
:100D9000C502E253FE4F80818A3051F48091C40233
:100DA0009091C50201969093C5028093C402E4CF4E
:100DB00060E770E08EEC91E00E94110E892B09F43F
:100DC00057C0E091C402F091C502E253FE4F80810A
:100DD0008C3251F08091C4029091C502019690939B
:100DE000C5028093C402EDCF8091C4029091C502E8
:100DF00001969093C5028093C402FE013196CF0103
:100E0000A091C402B091C502A253BE4F2C912D30C7
:100E100099F0A091C402B091C502A253BE4F2C918B
:100E200021932091C4023091C5022F5F3F4F309330
:100E3000C5022093C402E4CF0E94DE0D909391017D
:100E400080939001EEECF1E0DF010D900020E9F7D6
:100E5000AD01415051094E5C514060E070E0CF015E
:100E60000E94FC0D1092C5021092C40281E001C0E4
:100E700080E00F900F900F900F90DF91CF91089529
:100E8000EF92FF920F931F93CF93DF93CDB7DEB70F
:100E9000A3970FB6F894DEBF0FBECDBF7B011092B3
:100EA000C5021092C4029F938F9386E790E09F93B0
:100EB0008F938E010F5F1F4F1F930F930E94580E49
:100EC000C8010E9474002FEF8FEB96E02150804004
:100ED0009040E1F700C000000F900F900F900F902E
:100EE0000F900F90E091C402F091C502E253FE4FC3
:100EF00080818E3309F052C01092C5021092C40254
:100F0000EEECF1E0DF010D900020E9F7AD0141507A
:100F100051094E5C514060E070E0CF010E94FC0D31
:100F2000C7010E9474008AE10E947000BFEFEFE1E8
:100F3000FAE0B150E040F040E1F700C0000010924C
:100F4000C5021092C402EEECF1E0DF010D9000202A
:100F5000E9F7AD01415051094E5C514060E070E04D
:100F6000CF010E94FC0DF80101900020E9F7AF01CC
:100F700041505109401B510B60E070E0C8010E94D4
:100F8000FC0DA3960FB6F894DEBF0FBECDBFDF9168
:100F9000CF911F910F91FF90EF9008952091C4027F
:100FA0003091C5022F5F3F4F3093C5022093C4029A
:100FB00099CFCF93DF931092C5021092C402E091B3
:100FC000C402F091C502E253FE4F80818D3049F09A
:100FD000E091C402F091C502E253FE4F80818A3055
:100FE00051F48091C4029091C50201969093C5027C
:100FF0008093C402E4CF80EC0E948000C0E0D0E087
:10100000E091C402F091C502E253FE4F80818D3021
:10101000D1F0E091C402F091C502E253FE4F80810D
:101020000E948F008091C4029091C5020196909316
:10103000C5028093C4022196CF30D10509F780E81C
:101040000E948000DDCF1092C5021092C402EEEC27
:10105000F1E0DF010D900020E9F7AD0141505109A9
:101060004E5C514060E070E0CF01DF91CF910C9475
:10107000FC0D8F929F92AF92BF92CF92DF92EF9230
:10108000FF920F931F93CF93DF9300D0CDB7DEB7BE
:10109000E12CF12C9EEC892E91E0992EF401019027
:1010A0000020E9F78F01015011090E5C114009F48D
:1010B00046C089E995E10197F1F700C09FEFE91A71
:1010C000F90AF40101900020E9F73197EE5CF14054
:1010D0000E171F07A1F58EECC82E81E0D82EA12C8B
:1010E000B12CC6018E5C91408017910744F58A812E
:1010F0008983F60181916F018A8342E050E064E8C0
:1011000070E0CE0101960E94030E892B51F3C501B8
:101110000196F2E0AF16B10481F40F900F90DF91C9
:10112000CF911F910F91FF90EF90DF90CF90BF90E4
:10113000AF909F908F900C94D9075C01D2CF8CEC2C
:101140009AE00197F1F700C000009FEFE91AF90A51
:10115000E0E6EE16EAEEFE0608F4A0CF0F900F9040
:10116000DF91CF911F910F91FF90EF90DF90CF9083
:10117000BF90AF909F908F90089587E890E00E9475
:1011800074002FEF8FE793E4215080409040E1F707
:1011900000C000008BE890E00E947400AFEFBFE752
:1011A00023E4A150B0402040E1F700C0000061E915
:1011B00070E08EEC91E00E94110E892BF1F20E94FA
:1011C000390880EAEEECF1E0DF011D928A95E9F73B
:1011D000BFEF2FEB81E2B15020408040E1F700C02B
:1011E000000084E990E00E9474009FEFAFEBB1E251
:1011F0009150A040B040E1F700C000008FE990E0BE
:101200000E9474002FEF8FEB91E2215080409040BC
:10121000E1F700C0000082EB90E00E947400AFEFA5
:10122000BFE723E4A150B0402040E1F700C0000038
:101230008BEB90E00E9474008FEF9FE7A3E4815056
:101240009040A040E1F700C0000008950F931F9365
:10125000CF93DF932FEF8FED90E1215080409040AE
:10126000E1F700C0000068EC70E08EEC91E00E94B5
:10127000110E892B09F4B0C01092C5021092C4025D
:10128000E091C402F091C502E253FE4F80818D309F
:1012900049F0E091C402F091C502E253FE4F808113
:1012A0008E3651F48091C4029091C50201969093BC
:1012B000C5028093C402E4CFE091C402F091C5025C
:1012C000E253FE4F80818C3251F08091C4029091A4
:1012D000C50201969093C5028093C402EDCF809120
:1012E000C4029091C50202969093C5028093C402F5
:1012F000E7E7F2E0A091C402B091C502A253BE4F4D
:101300008C9181938091C4029091C5020196909333
:10131000C5028093C402A2E0E138FA0759F7809130
:10132000C4029091C50201969093C5028093C402B5
:10133000E091C402F091C502E353FE4F80818A30F0
:1013400071F780EC0E94800005E812E0C0E0D0E078
:10135000E091C402F091C502E253FE4F80818D30CE
:1013600039F1CF31D10521F1E091C402F091C502EC
:10137000E253FE4F80810E948F00E091C402F09101
:10138000C502E253FE4F8081F80181938F01809165
:10139000C4029091C50201969093C5028093C40245
:1013A0002196C031D105A1F680E80E948000D0CFFF
:1013B0001092C5021092C402EEECF1E0DF010D9034
:1013C0000020E9F7AD01415051094E5C514060E009
:1013D00070E0CF010E94FC0D10929201DF91CF913D
:1013E0001F910F9108950F931F93CF93DF93CDB764
:1013F000DEB72A970FB6F894DEBF0FBECDBF9F931E
:101400008F938EEC90E09F938F938E010F5F1F4F11
:101410001F930F930E94580EC8010E9474000E94EF
:1014200026090F900F900F900F900F900F902A9613
:101430000FB6F894DEBF0FBECDBFDF91CF911F91E5
:101440000F910895B89AC0988FEF97ED0197F1F733
:1014500000C00000C09A0895B898B099FECFB09B24
:10146000FECFB099FECF089588E090E0B09BFECF0C
:101470002EE62A95F1F700C0B09B05C020918F01A0
:10148000220F216003C020918F01220F20938F0132
:10149000B099FECF0197009749F780918F01089589
:1014A0000E94220A0E942C0A0E94340A8093C302DE
:1014B0000E94340A809374020E94340A8093C2020C
:1014C0000E94340A8093CB020E94340A80937502F2
:1014D0000895CF93DF9300D000D01F92CDB7DEB731
:1014E0005091C302809174024091C2023091CB02AC
:1014F0002091750290E0850F911D840F911D830F3F
:10150000911D30E08217930739F04AED50E06CE00E
:1015100081E00E94C50025C08091C3024AE0BE015F
:101520006F5F7F4F90E00E942B0EAE014F5F5F4FC9
:101530006AE081E00E94C50080EE90E00E94B90060
:10154000809174024AE0BE016F5F7F4F90E00E947D
:101550002B0ECE0101960E94B90082EE90E00E940F
:10156000B9002FEF8FEB91E2215080409040E1F7DE
:1015700000C000000F900F900F900F900F90DF9120
:10158000CF9108950F931F93CF93DF93CDB7DEB71D
:10159000E2970FB6F894DEBF0FBECDBF6091C602D2
:1015A0007091C7028091C8029091C90224E630E090
:1015B00040E050E00E949D0D5F934F933F932F9327
:1015C00084EE90E09F938F938E010F5F1F4F1F93C8
:1015D0000F930E94580EA80160E081E00E94C500B0
:1015E00088EE90E00E94B9000FB6F894DEBF0FBEFF
:1015F000CDBFE2960FB6F894DEBF0FBECDBFDF9130
:10160000CF911F910F910895DF92EF92FF920F9368
:101610001F93CF93DF9300D000D0CDB7DEB7D82E85
:1016200080917602882319F04CEE50E002C04EEE15
:1016300050E06D2D82E00E94C5008091C1021F9292
:101640008F9300EF10E01F930F937E0183E0E80E6D
:10165000F11CFF92EF920E94580E61E06D0DA70100
:1016600082E00E94C50063E06D0D40EE50E082E034
:101670000E94C500809172021F928F931F930F9357
:101680008E010F5F1F4F1F930F930E94580E64E04F
:101690006D0DA80182E00E94C50066E06D0D43EF6C
:1016A00050E082E00E94C5000FB6F894DEBF0FBE86
:1016B000CDBF0F900F900F900F90DF91CF911F91A2
:1016C0000F91FF90EF90DF900895CF93DF93CDB708
:1016D000DEB7E2970FB6F894DEBF0FBECDBF109213
:1016E000C5021092C4028CE3E5E8F2E0DF011D922E
:1016F0008A95E9F70E949F0060E875E280E090E03B
:101700000E9449000E94500A84E690E00E94DD0099
:101710000E94740183B7886083BF83B7856083BFED
:101720008BE68CBF89B7826089BF0E94BF0480931B
:10173000CA02BFEF2FE489E1B15020408040E1F7B9
:1017400000C00000789445EF50E060E081E00E9426
:10175000C5009FEFAFE3B5E69150A040B040E1F780
:1017600000C000000E94BD080E94DA0010929201A1
:1017700020EA822E34E6C32ED12CE12CF12C4FE24C
:10178000A42E41E0B42E8E010F5F1F4F5CE3752E37
:1017900063E0962E0E94850260936E0270936F0242
:1017A00080937002909371020E94E5026093C602DA
:1017B0007093C7028093C8029093C9020E94C20A24
:1017C0000E94690A80919201813009F0BCC00E9498
:1017D000DA0046E051E060E081E00E94C5002FEFB2
:1017E0008FEB91E2215080409040E1F700C0000073
:1017F0000E94DA0045E151E060E081E00E94C5000E
:101800008FE191E00E947400AFEFBFE723E4A150A5
:10181000B0402040E1F700C0000061E970E08EECCC
:1018200091E00E94110E892B09F472C00E943908C0
:10183000EEECF1E0DF01282D1D922A95E9F781E019
:1018400090E00E94F3096AE271E085E892E00E946C
:10185000110E892B09F460C00E94DA008FEF9FE718
:10186000A3E481509040A040E1F700C000008091C7
:101870009001909191010E94F309BFEF2FE385E65B
:10188000B15020408040E1F700C000005090740249
:101890006090C3026091C6027091C7028091C80235
:1018A0009091C902A70196010E949D0D5F934F93ED
:1018B0003F932F931F925F921F926F9280917202BB
:1018C0001F928F938091C1021F928F93BF92AF920C
:1018D0001F930F930E94580E4DE651E060E081E0A7
:1018E0000E94C500B8018BE791E00E9440079FEF7E
:1018F000AFE3B5E69150A040B040E1F700C0000072
:101900000E94DA000FB6F894DEBF0FBECDBF04C050
:101910008AED90E00E94B90045E851E060E082E085
:101920000E94C5008BEB90E00E9474009FEFAFE730
:10193000B3E49150A040B040E1F700C00000109225
:1019400092010E94DA00E5E8F2E0DF01272D1D9206
:101950002A95E9F780917302882309F41BCF8091BF
:10196000CD01692D0E945B0D91110BC0EDEBF1E0F3
:10197000119281E0ED3CF807D9F70E94BF048093F3
:10198000CA028091CD01692D0E945B0D913029F42E
:1019900060E070E081E00E941B058091CD01692D1F
:1019A0000E945B0D923059F522E732E041EC52E0A3
:1019B00066E772E08DEB91E00E943A05811103C069
:1019C0000E94040B06C04AED50E060E082E00E94F5
:1019D000C50022E732E041EC52E066E772E085ECB8
:1019E00091E00E943A05811104C089E00E94040B35
:1019F00006C04AED50E069E082E00E94C500109206
:101A00007302C8CE1F920F920FB60F9211248F93BC
:101A100080918E018F5F80938E01843680F081E00B
:101A2000809373028091CD018F5F8093CD0180916F
:101A3000CD018C3310F01092CD0110928E018F9158
:101A40000F900FBE0F901F9018951F920F920FB618
:101A50000F9211248F939F93EF93FF93E091C40211
:101A6000F091C5028CB1E253FE4F80838091C40295
:101A70009091C50201969093C5028093C40281E0C3
:101A800080939201FF91EF919F918F910F900FBEE4
:101A90000F901F901895DB018F939F930E94BC0DB0
:101AA000BF91AF91A29F800D911DA39F900DB29FFA
:101AB000900D11240895991B79E004C0991F961781
:101AC00008F0961B881F7A95C9F780950895AA1B80
:101AD000BB1B51E107C0AA1FBB1FA617B70710F019
:101AE000A61BB70B881F991F5A95A9F7809590954B
:101AF000BC01CD010895A1E21A2EAA1BBB1BFD015A
:101B00000DC0AA1FBB1FEE1FFF1FA217B307E407DC
:101B1000F50720F0A21BB30BE40BF50B661F771F34
:101B2000881F991F1A9469F7609570958095909514
:101B30009B01AC01BD01CF010895052E97FB1EF45A
:101B400000940E94B40D57FD07D00E947B0D07FC46
:101B500003D04EF40C94B40D5095409530952195DA
:101B60003F4F4F4F5F4F08959095809570956195C9
:101B70007F4F8F4F9F4F08950E94CF0DA59F900DCF
:101B8000B49F900DA49F800D911D11240895B7FF5F
:101B90000C94BC0D0E94BC0D821B930B0895A29F58
:101BA000B001B39FC001A39F700D811D1124911D31
:101BB000B29F700D811D1124911D0895FC0188278D
:101BC0009927E89421912032E9F3293010F02E3042
:101BD000C8F32B3241F02D3239F4689404C00E94CE
:101BE000360E820F911D219120532A30C0F31EF42E
:101BF000909581959F4F0895DC0101C06D934150F0
:101C00005040E0F70895FB01DC014150504030F0B6
:101C10008D910190801919F40020B9F7881B990B58
:101C20000895FB0151915523A9F0BF01DC014D91AD
:101C300045174111E1F759F4CD010190002049F019
:101C40004D9140154111C9F3FB014111EFCF81E0E6
:101C500090E001970895BB274A3031F4992322F48C
:101C6000BDE2909581959F4F0C943F0E7AE0979F2F
:101C7000902D879F802D910D11240895BB27FB0186
:101C80005527AA27880F991FAA1FA41710F0A41B75
:101C900083955051B9F7A05DAA3308F0A95DA193CF
:101CA000009779F7B111B1931192CB010C946210A6
:101CB000AEE0B0E0EEE5FEE00C9410110D891E8957
:101CC00086E08C831A8309838FEF9FE79E838D8341
:101CD000AE01475E5F4F6F89788DCE0101960E94FD
:101CE0007A0EEF81F885E00FF11F10822E96E4E066
:101CF0000C942C11ACE0B0E0E0E8FEE00C94021192
:101D00007C016B018A01FC0117821682838181FFAD
:101D1000BDC1CE0101964C01F7019381F60193FDFF
:101D2000859193FF81916F01882309F4ABC18532BE
:101D300039F493FD859193FF81916F01853229F4E8
:101D4000B70190E00E947210E7CF512C312C20E0B7
:101D50002032A0F48B3269F030F4803259F08332B3
:101D600069F420612CC08D3239F0803339F4216060
:101D700026C02260246023C0286021C027FD27C020
:101D800030ED380F3A3078F426FF06C0FAE05F9E57
:101D9000300D1124532E13C08AE0389E300D1124CB
:101DA000332E20620CC08E3221F426FD6BC12064DC
:101DB00006C08C3611F4206802C0883641F4F60162
:101DC00093FD859193FF81916F018111C1CF982F70
:101DD0009F7D9554933028F40C5F1F4FFFE3F983E8
:101DE0000DC0833631F0833771F0833509F05BC065
:101DF00022C0F801808189830E5F1F4F44244394E1
:101E0000512C540115C03801F2E06F0E711CF8011D
:101E1000A080B18026FF03C0652D70E002C06FEF87
:101E20007FEFC5012C870E9457102C0183012C8560
:101E30002F77222E17C03801F2E06F0E711CF801C7
:101E4000A080B18026FF03C0652D70E002C06FEF57
:101E50007FEFC5012C870E944C102C012C85206837
:101E6000222E830123FC1BC0832D90E048165906C7
:101E7000B0F4B70180E290E00E9472103A94F4CF7F
:101E8000F50127FC859127FE81915F01B70190E064
:101E90000E94721031103A94F1E04F1A5108411427
:101EA000510471F7E5C0843611F0893639F5F8012F
:101EB00027FF07C060817181828193810C5F1F4F72
:101EC00008C060817181882777FD8095982F0E5F0B
:101ED0001F4F2F76B22E97FF09C090958095709571
:101EE00061957F4F8F4F9F4F2068B22E2AE030E0E0
:101EF000A4010E94A410A82EA81844C0853729F474
:101F00002F7EB22E2AE030E025C0F22FF97FBF2EBF
:101F10008F36C1F018F4883579F0B4C0803719F0E5
:101F2000883721F0AFC02F2F2061B22EB4FE0DC034
:101F30008B2D8460B82E09C024FF0AC09F2F9660A5
:101F4000B92E06C028E030E005C020E130E002C034
:101F500020E132E0F801B7FE07C060817181828123
:101F600093810C5F1F4F06C06081718180E090E01B
:101F70000E5F1F4FA4010E94A410A82EA818FB2DCD
:101F8000FF77BF2EB6FE0BC02B2D2E7FA51450F46D
:101F9000B4FE0AC0B2FC08C02B2D2E7E05C07A2CE0
:101FA0002B2D03C07A2C01C0752C24FF0DC0FE011F
:101FB000EA0DF11D8081803311F4297E09C022FFD2
:101FC00006C07394739404C0822F867809F07394CA
:101FD00023FD13C020FF06C05A2C731418F4530CB1
:101FE0005718732C731468F4B70180E290E02C87C3
:101FF0000E94721073942C85F5CF731410F4371867
:1020000001C0312C24FF12C0B70180E390E02C877F
:102010000E9472102C8522FF17C021FF03C088E5A3
:1020200090E002C088E790E0B7010CC0822F86786C
:1020300059F021FD02C080E201C08BE227FD8DE254
:10204000B70190E00E947210A51438F4B70180E344
:1020500090E00E9472105A94F7CFAA94F401EA0D0E
:10206000F11D8081B70190E00E947210A110F5CFA0
:10207000332009F451CEB70180E290E00E94721043
:102080003A94F6CFF7018681978102C08FEF9FEFD8
:102090002C96E2E10C941E11FC01059061507040F9
:1020A0000110D8F7809590958E0F9F1F0895FC0121
:1020B0006150704001900110D8F7809590958E0F77
:1020C0009F1F0895DC01FC01672F71917723E1F7D1
:1020D000329704C07C916D9370836291AE17BF07F5
:1020E000C8F308950F931F93CF93DF93182F092FF1
:1020F000EB018B8181FD03C08FEF9FEF20C082FF3A
:1021000010C04E815F812C813D81421753077CF4C2
:10211000E881F9819F012F5F3F4F39832883108326
:1021200006C0E885F985812F0995892B29F72E812D
:102130003F812F5F3F4F3F832E83812F902FDF9171
:10214000CF911F910F910895FA01AA27283051F1DC
:10215000203181F1E8946F936E7F6E5F7F4F8F4FD8
:102160009F4FAF4FB1E03ED0B4E03CD0670F781F37
:10217000891F9A1FA11D680F791F8A1F911DA11D1C
:102180006A0F711D811D911DA11D20D009F4689455
:102190003F912AE0269F11243019305D3193DEF6FD
:1021A000CF010895462F4770405D4193B3E00FD0B3
:1021B000C9F7F6CF462F4F70405D4A3318F0495D9E
:1021C00031FD4052419302D0A9F7EACFB4E0A69581
:1021D0009795879577956795BA95C9F700976105A3
:1021E000710508959B01AC010A2E069457954795F9
:1021F00037952795BA95C9F7620F731F841F951FEE
:10220000A01D08952F923F924F925F926F927F92FE
:102210008F929F92AF92BF92CF92DF92EF92FF92F6
:102220000F931F93CF93DF93CDB7DEB7CA1BDB0BA2
:102230000FB6F894DEBF0FBECDBF09942A88398847
:1022400048885F846E847D848C849B84AA84B9844E
:10225000C884DF80EE80FD800C811B81AA81B9815A
:10226000CE0FD11D0FB6F894DEBF0FBECDBFED016E
:062270000895F894FFCF71
:10227600000101020203040405060607070809090E
:10228600434D54493A0041542B434D47533D222573
:1022960073220D000D0A0041540D00415445300DC6
:1022A600004F4B0041542B434D47463D310D0041F5
:1022B600542B434E4D493D312C312C302C302C3192
:1022C6000D0041545332343D350D0041542B434DDE
:1022D60047443D312C340D002B434D4752004154A9
:1022E6002B434D47523D25640D004572726F7200B7
:1022F6002E002500256C6400685061002D0020002A
:1023060025640043005572756368616D69616E6985
:10231600652047534D006E6F776120776961646F62
:102326006D6F73630041542B434D47523D3100415D
:10233600542B434D47523D310D004D65617300549A
:10234600656D70657261747572653A2025642E2517
:10235600642043200A48756D69646974793A2025BA
:10236600642E25642025252052480A507265737311
:102376007572653A20256C64206850410057797360
:10238600796C616E696520736D7300373931323748
:0E239600393430370075737577616E696500F4
:00000001FF
