:100000000C942A000C9447000C9447000C94470071
:100010000C9447000C9447000C9447000C94470044
:100020000C9447000C9447000C94510D0C9447001D
:100030000C9447000C94740D0C9447000C944700EA
:100040000C9447000C9447000C9447000C94470014
:100050000C94470011241FBECFE5D8E0DEBFCDBF12
:1000600011E0A0E6B0E0E4E1F3E202C005900D92F9
:10007000A83DB107D9F723E0A8EDB1E001C01D927A
:10008000A631B207E1F70E94050C0C9488110C947C
:1000900000009B01AC018AB188698AB980B5866885
:1000A00080BD84E0220F331F441F551F8A95D1F76E
:1000B00060E070EC88EA90E00E94CA0D8FEF820F3A
:1000C00089B9DA01C9010197A109B109892F9A2FCC
:1000D000AB2FBB2780BD08955F9BFECF8CB10895E9
:1000E0008CB95D9BFECF0895CF93DF93EC0189918E
:1000F000882319F00E947000FACFDF91CF91089504
:100100008BBB85B38F7385BBAD9A84E08A95F1F77D
:10011000AD9886E690E20197F1F7000008958BBB59
:10012000AE9885B3806A85BB84E08A95F1F7AD9877
:100130008CEC9AE00197F1F700C00000089584B3B9
:10014000806E84BB8FEF8ABB8FEF97ED0197F1F73D
:1001500000C0000088E30E9480008CE00E948000C4
:1001600086E00E94800081E00E94800080E80C947C
:100170008000CF93DF93EC018991882319F00E94CE
:100180008F00FACFDF91CF910895CF93DF93EA01EB
:10019000813021F4862F8F70806805C0823029F469
:1001A000862F8F70806C0E948000CE01DF91CF91EE
:1001B0000C94B90081E00C948000BC0183E39BE2C5
:1001C0000E94B60D862F603138F07727CB0140971B
:1001D00097FD01969595879580B9089584EA86BF25
:1001E00006B607FEFDCF089584E986BF06B604FC77
:1001F000FDCF089583B984E886BF06B607FEFDCF1C
:10020000089520E4829FC0011124846886BF06B649
:1002100007FEFDCF83B10895EF92FF921F93CF9316
:10022000DF9300D000D0CDB7DEB7142F2B833C83F3
:100230006A8389830E94EE0089810E94FA006A81A4
:10024000862F0E94FA002B81E22E3C81F32E120FA2
:100250001E1531F0F70181917F010E94FA00F8CF5D
:100260000F900F900F900F90DF91CF911F91FF9003
:10027000EF900C94F400EF92FF921F93CF93DF93D3
:1002800000D01F92CDB7DEB7F82E142F2A833B8300
:1002900069830E94EE008F2D0E94FA006981862FEB
:1002A0000E94FA000E94EE0081E08F0D0E94FA0089
:1002B00011502A81E22E3B81F32E1F3F59F081E03D
:1002C000111101C080E00E940101F70181937F01BB
:1002D0001150F3CF0F900F900F90DF91CF911F919E
:1002E000FF90EF900C94F400CF93DF93CDB7DEB77F
:1002F00066970FB6F894DEBF0FBECDBF9E012F5F8D
:100300003F4F46E150E06AEA70E08EEE90E00E94D6
:100310003B01898190E0982F88272A81822B909336
:10032000E8018093E7018B8190E0982F88272C814A
:10033000822B9093FA018093F9018D8190E0982FA0
:1003400088272E81822B9093FC018093FB018F8163
:1003500090E0982F88272885822B9093F601809330
:10036000F501898590E0982F88272A85822B909324
:10037000F0018093EF018B8590E0982F88272C85E2
:10038000822B9093EA018093E9018D8590E0982F6C
:1003900088272E85822B90930402809303028F85F9
:1003A00090E0982F88272889822B9093FE018093D4
:1003B000FD01898990E0982F88272A89822B9093C4
:1003C000F8018093F7018B8990E0982F88272C897A
:1003D000822B90930602809305028D8990E0982FDE
:1003E00088272E89822B9093E6018093E5016696FB
:1003F0000FB6F894DEBF0FBECDBFDF91CF91089549
:10040000CF93DF9300D01F92CDB7DEB78EE28B8300
:100410009E012D5F3F4F41E050E064EF70E08EEEB3
:1004200090E00E940C018FEF95E30197F1F700C077
:1004300000009E012F5F3F4F42E050E066EF70E00A
:100440008EEE90E00E943B01898190E0A0E0B0E058
:10045000BA2FA92F982F88272A81822B8093FF01FA
:1004600090930002A0930102B09302020F900F90AC
:100470000F90DF91CF910895CF93DF9300D000D0FC
:10048000CDB7DEB784EF8C839E012C5F3F4F41E0F8
:1004900050E064EF70E08EEE90E00E940C0123EAE1
:1004A00080EE90E0215080409040E1F700C00000D5
:1004B0009E012F5F3F4F43E050E066EF70E08EEE0D
:1004C00090E00E943B0129818A8190E0A0E0B0E0A9
:1004D000BA2FA92F982F8827A22B2B81822B55E08A
:1004E000B595A795979587955A95D1F78093EB0188
:1004F0009093EC01A093ED01B093EE010F900F905B
:100500000F900F90DF91CF910895CF92DF92EF92ED
:10051000FF920E9400028091E9019091EA012091EE
:10052000FF01309100024091010250910202281B0C
:10053000390B41095109A091EF01B091F0010E94DE
:100540000B0E6B017C016FE0F594E794D794C79490
:100550006A95D1F76091050270910602882777FDB0
:100560008095982FEBE0660F771F881F991FEA95FB
:10057000D1F72091E5013091E601442737FD409500
:10058000542F2C0D3D1D4E1D5F1D0E94EC0D2C0D9A
:100590003D1D4E1D5F1D2093F1013093F2014093EC
:1005A000F3015093F401CA01B901685F7F4F8F4F87
:1005B0009F4FF4E09595879577956795FA95D1F7D4
:1005C000FF90EF90DF90CF9008954F925F926F92DF
:1005D0007F928F929F92AF92BF92CF92DF92EF92D3
:1005E000FF920F931F93CF93DF9300D000D0CDB72E
:1005F000DEB70E943C028090F1019090F201A09041
:10060000F301B090F40180EA881A8FE0980AA108FB
:10061000B108A5019401C501B4010E949A0D2B01F6
:100620003C010091E7011091E801A091FB01B0911C
:10063000FC010E94160E6B017C013DE0F594E794ED
:10064000D794C7943A95D1F7A0910302B0910402D0
:10065000A30192016CE055954795379527956A95CA
:10066000D1F70E94160EBB2797FDB095AB2FC80E91
:10067000D91EEA1EFB1E92E0C90ED11CE11CF11C22
:10068000F2E0F594E794D794C794FA95D1F7A0E8EF
:10069000DA0EE11CF11CA091F501B091F601A70161
:1006A00096010E940B0EDC01CB012FE0B695A795B9
:1006B000979587952A95D1F789839A83AB83BC83D5
:1006C0006801EE24D7FCE094FE2C32E0CC0CDD1C5B
:1006D000EE1CFF1C3A95D1F7A091FD01B091FE01EF
:1006E000A30192010E94160E2B013C0147E1759473
:1006F0006794579447944A95D1F7A091F901B09126
:10070000FA01A50194010E94160E5BE0959587956C
:10071000779567955A95D1F7460E571E681E791E34
:10072000C40CD51CE61CF71CCC0CDD1CEE1CFF1CFD
:100730002091EB013091EC014091ED015091EE01DF
:100740002C193D094E095F09AAE6B8E10E940B0E7B
:1007500097FD0DC0660F771F881F991F29813A8169
:100760004B815C810E94CA0D49015A010CC029814C
:100770003A814B815C810E94CA0D49015A01880C63
:10078000991CAA1CBB1C9927B7FC9A958B2D7A2D16
:10079000692D9B01AC010E949A0D9B01AC01AEED4D
:1007A000BBE00E940B0E6C01FF24D7FCF094EF2CF1
:1007B000A3E4B3EEA50194010E94190EBB2797FD97
:1007C000B095AB2FC80ED91EEA1EFB1E9FECC90EBA
:1007D0009EE0D91EE11CF11C04E0F594E794D79447
:1007E000C7940A95D1F7C80CD91CEA1CFB1CC70199
:1007F000B6010F900F900F900F90DF91CF911F9146
:100800000F91FF90EF90DF90CF90BF90AF909F90AF
:100810008F907F906F905F904F900895FC01680FCC
:10082000791F80E048E1E617F70781F0219198E011
:10083000322F3827532F517030FD84278695513041
:1008400009F480682695915099F7EDCF08950F939C
:100850001F93CF93DF93CDB7DEB760970FB6F894B1
:10086000DEBF0FBECDBF90E1E0E6F0E0DE01119605
:1008700001900D929A95E1F7DB01EC9111969C9114
:10088000F0E0F92B803179F4DF01AE7FE3E0AA0FCD
:10089000BB1FEA95E1F7FB019681ECE0F0E0E91B74
:1008A000F109EA0FFB1FF7FF07C091E0DA019C9303
:1008B000F195E195F10902C0DA011C92883281F4C8
:1008C000DB0114968C91982F9076903649F086FF34
:1008D00002C0EE7F05C085FF02C0EC7F01C0E87F4B
:1008E000CF0144E0969587954A95E1F7D9018C931D
:1008F000EF70FF2781E090E08C0F9D1FE80FF91F3C
:100900008081D8018C9380E060960FB6F894DEBFAA
:100910000FBECDBFDF91CF911F910F910895882316
:1009200019F0719561957109442319F0319521955C
:100930003109621773073CF081E090E02617370712
:1009400024F080E008958FEF9FEF08950F931F9399
:10095000CF93DF93EC018B01B80188810E943F06A1
:10096000888381508D3F30F4F8018081883211F006
:10097000803191F7DF91CF911F910F910895FF92F0
:100980000F931F93CF93DF93CDB7DEB729970FB6A1
:10099000F894DEBF0FBECDBF8FEF898707E012E06E
:1009A000F12C8985882301F182E0F816E9F0BE0177
:1009B0006F5F7F4FCE0109960E94A60489858E5FE6
:1009C000823090F0FE01319620E030E08191D80134
:1009D000A20FB31F8C932F5F3F4F28303105B1F723
:1009E000F394085F1F4FDDCF8F2D29960FB6F89433
:1009F000DEBF0FBECDBFDF91CF911F910F91FF9052
:100A00000895CF93DF93EC010E94FD0581110FC083
:100A1000BE0184EB0E94860681E00E941706C82F63
:100A20000E94FD0581E0C11103C080E001C081E0AA
:100A3000DF91CF9108951F93CF93DF93182FEB0190
:100A40000E94FD0581110DC00E94F405882359F014
:100A5000BE0184E40E948606113039F00E94F70539
:100A600004C081E003C082E001C080E0DF91CF914B
:100A70001F9108954F925F926F927F928F929F92F3
:100A8000AF92BF92CF92DF92EF92FF920F931F939C
:100A9000CF93DF93CDB7DEB729970FB6F894DEBFBB
:100AA0000FBECDBF6C015B014A0189010E94FD05AB
:100AB000811124C0B6018EEB0E948606CE010196FC
:100AC0007C013E019AE0690E711C27010E943C06E0
:100AD000F70181937F01E615F705C1F769E070E042
:100AE000C2010E940E0481110BC09401A501B20144
:100AF000F60180810E94270480E003C081E001C0EC
:100B000083E029960FB6F894DEBF0FBECDBFDF910C
:100B1000CF911F910F91FF90EF90DF90CF90BF90FA
:100B2000AF909F908F907F906F905F904F900895BF
:100B30005F926F927F928F929F92AF92BF92CF926D
:100B4000DF92EF92FF920F931F93CF93DF93CDB776
:100B5000DEB729970FB6F894DEBF0FBECDBF582E73
:100B60006B015A0189010E94FD05811124C060E0DA
:100B700070E08EEB0E948606CE0101967C014E014C
:100B80009AE0890E911C37010E943C06F70181937F
:100B90007F01E815F905C1F769E070E0C3010E9423
:100BA0000E0481110AC09501A601B301852D0E9492
:100BB000270480E003C081E001C083E029960FB6DE
:100BC000F894DEBF0FBECDBFDF91CF911F910F9183
:100BD000FF90EF90DF90CF90BF90AF909F908F905D
:100BE0007F906F905F90089586B382700895C19A48
:100BF000B99A0895C198B9980895C198B99A8FE2A1
:100C000095E00197F1F79FB7F894B998E3EFEA956B
:100C1000F1F7000086B39FBFE8E7F4E03197F1F702
:100C200000C0B19B02C08270089581E008959FB713
:100C3000F894B99A24E02A95F1F78111B99827E33D
:100C40002A95F1F70000B19B80E026EA2A95F1F79A
:100C5000B9989FBF0895CF93DF93C82FD8E08C2F0A
:100C600081700E941706C6958111C068D150B9F7EE
:100C70008C2FDF91CF9108958FEF0C942B06DF928C
:100C8000EF92FF920F931F93CF93DF93E82EEB0128
:100C90000E94FD0581112FC080EF0E942B06F12CD0
:100CA00010E488EFD82ED10E81E00E941706082F9D
:100CB00081E00E941706882319F0002361F01DC00F
:100CC000011109C01E1528F0888180FF04C0E116BB
:100CD00011F0F12E01E0802F0E9417069881969561
:100CE00001119068988311501D11DECF21961111CA
:100CF000D8CF8F2D03C08FEF01C08EEFDF91CF9142
:100D00001F910F91FF90EF90DF900895FF920F9346
:100D10001F93CF93DF93F82EEB010E94FD052097E0
:100D200069F085E50E942B068E01085F1F4F8991AF
:100D30000E942B06C017D107D1F703C08CEC0E948C
:100D40002B068F2DDF91CF911F910F91FF900C9467
:100D50002B060F931F93CF93DF93CDB7DEB7649726
:100D60000FB6F894DEBF0FBECDBF10920F031092E6
:100D70000E039F938F9380E790E09F938F938E0154
:100D80000F5F1F4F1F930F930E94A70EC8010E9471
:100D900074000F900F900F900F900F900F9064962B
:100DA0000FB6F894DEBF0FBECDBFDF91CF911F917C
:100DB0000F9108958CE790E00C947400CF93DF932B
:100DC00000D000D0CDB7DEB72FEF8FED90E12150EE
:100DD00080409040E1F700C0000010920F03109295
:100DE0000E03E0910E03F0910F03E85EFD4F80814A
:100DF0008D3049F0E0910E03F0910F03E85EFD4F56
:100E000080818A3051F480910E0390910F030196F6
:100E100090930F0380930E03E4CF60E970E088E1C4
:100E200092E00E94600E892B09F457C0E0910E03F6
:100E3000F0910F03E85EFD4F80818C3251F080917C
:100E40000E0390910F03019690930F0380930E036E
:100E5000EDCF80910E0390910F03019690930F03B5
:100E600080930E03FE013196CF01A0910E03B09145
:100E70000F03A85EBD4F2C912D3099F0A0910E0369
:100E8000B0910F03A85EBD4F2C91219320910E03CA
:100E900030910F032F5F3F4F30930F0320930E03CA
:100EA000E4CF0E942D0E9093DB018093DA01E8E1FC
:100EB000F2E0DF010D900020E9F7AD01415051094A
:100EC0004851524060E070E0CF010E944B0E1092FA
:100ED0000F0310920E0381E001C080E00F900F908D
:100EE0000F900F90DF91CF910895EF92FF920F93A3
:100EF0001F93CF93DF93CDB7DEB7A3970FB6F894C8
:100F0000DEBF0FBECDBF7B0110920F0310920E0308
:100F10009F938F9386E990E09F938F938E010F5F4D
:100F20001F4F1F930F930E94A70EC8010E947400C9
:100F30002FEF8FEB96E0215080409040E1F700C00A
:100F400000000F900F900F900F900F900F90E09176
:100F50000E03F0910F03E85EFD4F80818E3309F0A0
:100F600054C010920F0310920E03E8E1F2E0DF018B
:100F70000D900020E9F7AD01415051094851524010
:100F800060E070E0CF010E944B0EC7010E94740028
:100F90008AE10E947000BFEFEFE1FAE0B150E0405B
:100FA000F040E1F700C0000010920F0310920E0312
:100FB000E8E1F2E0DF010D900020E9F7AD014150DA
:100FC00051094851524060E070E0CF010E944B0E41
:100FD000F80101900020E9F7AF0141505109401B91
:100FE000510B60E070E0C8010E944B0E1092DC01D2
:100FF000A3960FB6F894DEBF0FBECDBFDF91CF91A1
:101000001F910F91FF90EF90089520910E03309162
:101010000F032F5F3F4F30930F0320930E0397CFA3
:10102000CF93DF9310920F0310920E03E0910E0303
:10103000F0910F03E85EFD4F80818D3049F0E09123
:101040000E03F0910F03E85EFD4F80818A3051F46A
:1010500080910E0390910F03019690930F0380935C
:101060000E03E4CF80EC0E948000C0E0D0E0E0916D
:101070000E03F0910F03E85EFD4F80818D30D1F0BB
:10108000E0910E03F0910F03E85EFD4F80810E9416
:101090008F0080910E0390910F03019690930F03A0
:1010A00080930E032196CF30D10509F780E80E9486
:1010B0008000DDCF10920F0310920E03E8E1F2E002
:1010C000DF010D900020E9F7AD0141505109485171
:1010D000524060E070E0CF01DF91CF910C944B0E55
:1010E0008F929F92AF92BF92CF92DF92EF92FF9238
:1010F0000F931F93CF93DF9300D0CDB7DEB7E12CD2
:10110000F12C98E1892E92E0992EF40101900020B3
:10111000E9F78F01015011090851124009F446C046
:1011200089E995E10197F1F700C09FEFE91AF90A03
:10113000F40101900020E9F73197E851F2400E17D1
:101140001F07A1F588E1C82E82E0D82EA12CB12C72
:10115000C601885192408017910744F58A8189839E
:10116000F60181916F018A8342E050E064EA70E009
:10117000CE0101960E94520E892B51F3C5010196B2
:10118000F2E0AF16B10481F40F900F90DF91CF9190
:101190001F910F91FF90EF90DF90CF90BF90AF9095
:1011A0009F908F900C9410085C01D2CF8CEC9AE049
:1011B0000197F1F700C000009FEFE91AF90AE0E695
:1011C000EE16EAEEFE0608F4A0CF0F900F90DF9126
:1011D000CF911F910F91FF90EF90DF90CF90BF9034
:1011E000AF909F908F90089587EA90E00E947400DE
:1011F0002FEF8FE793E4215080409040E1F700C04B
:1012000000000E94DA004BEA50E060E081E00E94BA
:10121000C50080EB90E00E947400AFEFBFE723E4CD
:10122000A150B0402040E1F700C0000066EB70E044
:1012300088E192E00E94600E892B09F49CC00E9414
:10124000700880EAE8E1F2E0DF011D928A95E9F793
:10125000BFEF2FEB81E2B15020408040E1F700C0AA
:1012600000000E94DA0049EB50E060E081E00E945B
:10127000C5009FEFAFEDB0E19150A040B040E1F765
:1012800000C0000087EC90E00E9474000E9470088B
:101290002FEF8FEB91E2215080409040E1F700C0AA
:1012A00000000E94DA0042ED50E060E081E00E9420
:1012B000C500AFEFBFED20E1A150B0402040E1F705
:1012C00000C0000080EC0E94800081EE90E00E944F
:1012D00074000E9470088FEF9FEBA1E28150904054
:1012E000A040E1F700C000000E94DA0049EE50E0A3
:1012F00060E081E00E94C500BFEF2FED80E1B150BA
:1013000020408040E1F700C0000080EC0E94800097
:1013100088EF90E00E9474000E9470089FEFAFEB8E
:10132000B1E29150A040B040E1F700C000000E943F
:10133000DA004BE051E060E081E00E94C5002FEF51
:101340008FEB91E2215080409040E1F700C0000017
:1013500080EC0E94800089E191E00E9474000E946C
:101360007008AFEFBFEB21E2A150B0402040E1F7A1
:1013700000C00000089583E291E00E94B90034CFDC
:101380000F931F93CF93DF932FEF8FED90E12150B9
:1013900080409040E1F700C0000069E271E088E120
:1013A00092E00E94600E892B39F44FE251E060E038
:1013B00081E00E94C500B0C010920F0310920E038E
:1013C000E0910E03F0910F03E85EFD4F80818D30B8
:1013D00049F0E0910E03F0910F03E85EFD4F80812C
:1013E0008E3651F480910E0390910F0301969093E5
:1013F0000F0380930E03E4CFE0910E03F0910F03EF
:10140000E85EFD4F80818C3251F080910E03909107
:101410000F03019690930F0380930E03EDCF8091FD
:101420000E0390910F03029690930F0380930E0387
:10143000E1ECF2E0A0910E03B0910F03A85EBD4F66
:101440008C91819380910E0390910F03019690935C
:101450000F0380930E03A2E0EB3CFA0759F780914B
:101460000E0390910F03019690930F0380930E0348
:10147000E0910E03F0910F03E95EFD4F80818A3009
:1014800071F780EC0E9480000FEC12E0C0E0D0E029
:10149000E0910E03F0910F03E85EFD4F80818D30E7
:1014A00039F1CF31D10521F1E0910E03F0910F0315
:1014B000E85EFD4F80810E948F00E0910E03F09165
:1014C0000F03E85EFD4F8081F80181938F018091C9
:1014D0000E0390910F03019690930F0380930E03D8
:1014E0002196C031D105A1F680E80E948000D0CFBE
:1014F00010920F0310920E03E8E1F2E0DF010D906D
:101500000020E9F7AD01415051094851524060E0D7
:1015100070E0CF010E944B0E1092DC01DF91CF9161
:101520001F910F9108950F931F93CF93DF93CDB722
:10153000DEB72A970FB6F894DEBF0FBECDBF9F93DC
:101540008F938AE391E09F938F938E010F5F1F4FDC
:101550001F930F930E94A70EC8010E9474000E945F
:10156000C0090F900F900F900F900F900F902A9638
:101570000FB6F894DEBF0FBECDBFDF91CF911F91A4
:101580000F910895B89AC0988FEF97ED0197F1F7F2
:1015900000C00000C09A0895B898B099FECFB09BE3
:1015A000FECFB099FECF089588E090E0B09BFECFCB
:1015B0002EE62A95F1F700C0B09B05C02091D90115
:1015C000220F216003C02091D901220F2093D9015D
:1015D000B099FECF0197009749F78091D9010895FE
:1015E0000E94C20A0E94CC0A0E94D40A80930D0372
:1015F0000E94D40A8093BE020E94D40A80930C03F6
:101600000E94D40A809315030E94D40A8093BF02DB
:101610000895CF93DF9300D000D01F92CDB7DEB7EF
:1016200050910D038091BE0240910C03309115033F
:101630002091BF0290E0850F911D840F911D830FB3
:10164000911D30E08217930739F043E251E06CE0DE
:1016500081E00E94C50025C080910D034AE0BE01D3
:101660006F5F7F4F90E00E947A0EAE014F5F5F4F39
:101670006AE081E00E94C50086E491E00E94B90022
:101680008091BE024AE0BE016F5F7F4F90E00E94F2
:101690007A0ECE0101960E94B90088E491E00E9482
:1016A000B9002FEF8FEB91E2215080409040E1F79D
:1016B00000C000000F900F900F900F900F90DF91DF
:1016C000CF9108950F931F93CF93DF93CDB7DEB7DC
:1016D000E2970FB6F894DEBF0FBECDBF6091100346
:1016E00070911103809112039091130324E630E06E
:1016F00040E050E00E94EC0D5F934F933F932F9397
:101700008AE491E09F938F938E010F5F1F4F1F9389
:101710000F930E94A70EA80160E081E00E94C5001F
:101720008EE491E00E94B9000FB6F894DEBF0FBEC0
:10173000CDBFE2960FB6F894DEBF0FBECDBFDF91EE
:10174000CF911F910F910895DF92EF92FF920F9327
:101750001F93CF93DF9300D000D0CDB7DEB7D82E44
:101760008091C002882319F042E551E002C044E5AF
:1017700051E06D2D82E00E94C50080910B031F9205
:101780008F9306E511E01F930F937E0183E0E80E2F
:10179000F11CFF92EF920E94A70E61E06D0DA70170
:1017A00082E00E94C50063E06D0D46E451E082E0F6
:1017B0000E94C5008091BC021F928F931F930F93CC
:1017C0008E010F5F1F4F1F930F930E94A70E64E0BF
:1017D0006D0DA80182E00E94C50066E06D0D49E52F
:1017E00051E082E00E94C5000FB6F894DEBF0FBE44
:1017F000CDBF0F900F900F900F90DF91CF911F9161
:101800000F91FF90EF90DF900895CF93DF93CDB7C6
:10181000DEB7E2970FB6F894DEBF0FBECDBF1092D1
:101820000F0310920E038CE3EFECF2E0DF011D9248
:101830008A95E9F70E949F0060E875E280E090E0F9
:101840000E9449000E94F00A84E690E00E94DD00B8
:101850000E94740183B7886083BF83B7856083BFAC
:101860008BE68CBF89B7826089BF0E94BF048093DA
:101870001403BFEFEFE4F9E1B150E040F040E1F7CD
:1018800000C0000078944BE551E060E081E00E94E8
:10189000C5002FEF8FE395E6215080409040E1F79F
:1018A00000C000000E94DA004CE651E060E081E0F8
:1018B0000E94C5000E94F4080E94DA001092DC0128
:1018C00024E6C22ED12CE12CF12C31E8A32E31E0FC
:1018D000B32E8E010F5F1F4F4FEC842E42E0942EEB
:1018E0005CE3652E63E0762E0E9485026093B80269
:1018F0007093B9028093BA029093BB020E94E502F2
:101900006093100370931103809312039093130359
:101910000E94620B0E94090B8091DC01813009F06A
:1019200063C00E94DA0042E751E060E081E00E947B
:10193000C500AFEFBFEBE1E2A150B040E040E1F7FE
:1019400000C000000E94DA008091DA019091DB0172
:101950000E94930AFFEF2FE385E6F150204080407C
:10196000E1F700C000004090BE0250900D0360916E
:101970001003709111038091120390911303A7013A
:1019800096010E94EC0D5F934F933F932F931F920C
:101990004F921F925F928091BC021F928F93809111
:1019A0000B031F928F93BF92AF921F930F930E94CE
:1019B000A70E4FEB51E060E081E00E94C500B80146
:1019C0008DEC91E00E9475079FEFAFE3B5E6915073
:1019D000A040B040E1F700C000000E94DA000FB65E
:1019E000F894DEBF0FBECDBFD401E62D1D92EA955F
:1019F000E9F78091BD02882309F476CF8091170220
:101A0000672D0E94AA0D91110BC0E7E0F2E0119240
:101A100022E0E731F207D9F70E94BF048093140354
:101A200080911702672D0E94AA0D913029F460E081
:101A300070E081E00E941B0580911702672D0E94D3
:101A4000AA0D923059F52CEB32E04BE053E060ECFC
:101A500072E087E092E00E943A05811103C00E9483
:101A6000A40B06C043E251E060E082E00E94C500A2
:101A70002CEB32E04BE053E060EC72E08FE092E060
:101A80000E943A05811104C089E00E94A40B06C09F
:101A900043E251E069E082E00E94C5001092BD027D
:101AA00023CF1F920F920FB60F9211248F93809124
:101AB000D8018F5F8093D801843680F081E08093D5
:101AC000BD02809117028F5F8093170280911702E9
:101AD0008C3310F0109217021092D8018F910F9052
:101AE0000FBE0F901F9018951F920F920FB60F9276
:101AF00011248F939F93EF93FF93E0910E03F09146
:101B00000F038CB1E85EFD4F808380910E039091AE
:101B10000F03019690930F0380930E0381E080934F
:101B2000DC01FF91EF919F918F910F900FBE0F906D
:101B30001F901895DB018F939F930E940B0EBF910E
:101B4000AF91A29F800D911DA39F900DB29F900D0C
:101B500011240895991B79E004C0991F961708F085
:101B6000961B881F7A95C9F780950895AA1BBB1B01
:101B700051E107C0AA1FBB1FA617B70710F0A61B8D
:101B8000B70B881F991F5A95A9F780959095BC01AE
:101B9000CD010895A1E21A2EAA1BBB1BFD010DC0A9
:101BA000AA1FBB1FEE1FFF1FA217B307E407F5070D
:101BB00020F0A21BB30BE40BF50B661F771F881FE9
:101BC000991F1A9469F760957095809590959B017F
:101BD000AC01BD01CF010895052E97FB1EF40094C2
:101BE0000E94030E57FD07D00E94CA0D07FC03D0C8
:101BF0004EF40C94030E50954095309521953F4F2F
:101C00004F4F5F4F089590958095709561957F4FE8
:101C10008F4F9F4F08950E941E0EA59F900DB49F59
:101C2000900DA49F800D911D11240895B7FF0C9471
:101C30000B0E0E940B0E821B930B0895A29FB00106
:101C4000B39FC001A39F700D811D1124911DB29FF0
:101C5000700D811D1124911D0895FC01882799277D
:101C6000E89421912032E9F3293010F02E30C8F3A6
:101C70002B3241F02D3239F4689404C00E94850E55
:101C8000820F911D219120532A30C0F31EF49095AC
:101C900081959F4F0895DC0101C06D9341505040E4
:101CA000E0F70895FB01DC014150504030F08D9188
:101CB0000190801919F40020B9F7881B990B089539
:101CC000FB0151915523A9F0BF01DC014D9145174E
:101CD0004111E1F759F4CD010190002049F04D91F7
:101CE00040154111C9F3FB014111EFCF81E090E0B4
:101CF00001970895BB274A3031F4992322F4BDE2BD
:101D0000909581959F4F0C948E0E7AE0979F902D21
:101D1000879F802D910D11240895BB27FB01552726
:101D2000AA27880F991FAA1FA41710F0A41B839538
:101D30005051B9F7A05DAA3308F0A95DA1930097AF
:101D400079F7B111B1931192CB010C94B110AEE0BF
:101D5000B0E0EDEAFEE00C945F110D891E8986E08B
:101D60008C831A8309838FEF9FE79E838D83AE0157
:101D7000475E5F4F6F89788DCE0101960E94C90E34
:101D8000EF81F885E00FF11F10822E96E4E00C94AD
:101D90007B11ACE0B0E0EFECFEE00C9451117C0163
:101DA0006B018A01FC0117821682838181FFBDC10C
:101DB000CE0101964C01F7019381F60193FD8591C7
:101DC00093FF81916F01882309F4ABC1853239F407
:101DD00093FD859193FF81916F01853229F4B701BD
:101DE00090E00E94C110E7CF512C312C20E020322E
:101DF000A0F48B3269F030F4803259F0833269F408
:101E000020612CC08D3239F0803339F4216026C036
:101E10002260246023C0286021C027FD27C030ED48
:101E2000380F3A3078F426FF06C0FAE05F9E300D96
:101E30001124532E13C08AE0389E300D1124332E06
:101E400020620CC08E3221F426FD6BC1206406C0D6
:101E50008C3611F4206802C0883641F4F60193FDF7
:101E6000859193FF81916F018111C1CF982F9F7D43
:101E70009554933028F40C5F1F4FFFE3F9830DC096
:101E8000833631F0833771F0833509F05BC022C0AF
:101E9000F801808189830E5F1F4F44244394512CA5
:101EA000540115C03801F2E06F0E711CF801A080DA
:101EB000B18026FF03C0652D70E002C06FEF7FEF99
:101EC000C5012C870E94A6102C0183012C852F7739
:101ED000222E17C03801F2E06F0E711CF801A080AD
:101EE000B18026FF03C0652D70E002C06FEF7FEF69
:101EF000C5012C870E949B102C012C852068222E66
:101F0000830123FC1BC0832D90E048165906B0F4D2
:101F1000B70180E290E00E94C1103A94F4CFF5013D
:101F200027FC859127FE81915F01B70190E00E9417
:101F3000C11031103A94F1E04F1A51084114510484
:101F400071F7E5C0843611F0893639F5F80127FFBD
:101F500007C060817181828193810C5F1F4F08C02F
:101F600060817181882777FD8095982F0E5F1F4FC4
:101F70002F76B22E97FF09C0909580957095619548
:101F80007F4F8F4F9F4F2068B22E2AE030E0A40190
:101F90000E94F310A82EA81844C0853729F42F7E7C
:101FA000B22E2AE030E025C0F22FF97FBF2E8F3607
:101FB000C1F018F4883579F0B4C0803719F088374B
:101FC00021F0AFC02F2F2061B22EB4FE0DC08B2D9B
:101FD0008460B82E09C024FF0AC09F2F9660B92ED6
:101FE00006C028E030E005C020E130E002C020E17A
:101FF00032E0F801B7FE07C0608171818281938170
:102000000C5F1F4F06C06081718180E090E00E5F21
:102010001F4FA4010E94F310A82EA818FB2DFF77D4
:10202000BF2EB6FE0BC02B2D2E7FA51450F4B4FE90
:102030000AC0B2FC08C02B2D2E7E05C07A2C2B2D99
:1020400003C07A2C01C0752C24FF0DC0FE01EA0DDF
:10205000F11D8081803311F4297E09C022FF06C062
:102060007394739404C0822F867809F0739423FDCF
:1020700013C020FF06C05A2C731418F4530C5718C1
:10208000732C731468F4B70180E290E02C870E94EF
:10209000C11073942C85F5CF731410F4371801C058
:1020A000312C24FF12C0B70180E390E02C870E94FE
:1020B000C1102C8522FF17C021FF03C088E590E0E6
:1020C00002C088E790E0B7010CC0822F867859F0F3
:1020D00021FD02C080E201C08BE227FD8DE2B70145
:1020E00090E00E94C110A51438F4B70180E390E09D
:1020F0000E94C1105A94F7CFAA94F401EA0DF11D81
:102100008081B70190E00E94C110A110F5CF33206B
:1021100009F451CEB70180E290E00E94C1103A94D8
:10212000F6CFF7018681978102C08FEF9FEF2C9643
:10213000E2E10C946D11FC010590615070400110BA
:10214000D8F7809590958E0F9F1F0895FC016150E0
:10215000704001900110D8F7809590958E0F9F1FC9
:102160000895DC01FC01672F71917723E1F7329725
:1021700004C07C916D9370836291AE17BF07C8F362
:1021800008950F931F93CF93DF93182F092FEB011F
:102190008B8181FD03C08FEF9FEF20C082FF10C0B5
:1021A0004E815F812C813D81421753077CF4E88189
:1021B000F9819F012F5F3F4F39832883108306C029
:1021C000E885F985812F0995892B29F72E813F8193
:1021D0002F5F3F4F3F832E83812F902FDF91CF9131
:1021E0001F910F910895FA01AA27283051F120314B
:1021F00081F1E8946F936E7F6E5F7F4F8F4F9F4F9B
:10220000AF4FB1E03ED0B4E03CD0670F781F891FDC
:102210009A1FA11D680F791F8A1F911DA11D6A0FAA
:10222000711D811D911DA11D20D009F468943F915D
:102230002AE0269F11243019305D3193DEF6CF015C
:102240000895462F4770405D4193B3E00FD0C9F722
:10225000F6CF462F4F70405D4A3318F0495D31FD8F
:102260004052419302D0A9F7EACFB4E0A6959795E2
:10227000879577956795BA95C9F7009761057105B8
:1022800008959B01AC010A2E069457954795379502
:102290002795BA95C9F7620F731F841F951FA01D5C
:1022A00008952F923F924F925F926F927F928F92FA
:1022B0009F92AF92BF92CF92DF92EF92FF920F93D5
:1022C0001F93CF93DF93CDB7DEB7CA1BDB0B0FB6DF
:1022D000F894DEBF0FBECDBF09942A88398848889C
:1022E0005F846E847D848C849B84AA84B984C88432
:1022F000DF80EE80FD800C811B81AA81B981CE0F29
:10230000D11D0FB6F894DEBF0FBECDBFED0108950D
:04231000F894FFCF6F
:10231400000101020203040405060607070809096F
:1023240041542B434D47443D25640D0041542B43F8
:102334004D4744413D2244454C20414C4C220D0024
:10234400434D54493A0041542B434D47533D2225B4
:1023540073220D000D0A0041540D00415445300014
:10236400415445300D004F4B00547279622074651E
:102374006B73746F77790041542B434D47463D315D
:102384000D004A616B6F7363207379676E616C75BE
:102394000041542B4353510D004B6F6D756E696BA7
:1023A40061747920736D730041542B434E4D493D44
:1023B400312C312C302C302C310D005472796220A8
:1023C40075737069656E69610041545332343D31EF
:1023D400300D004572726F72002B434D4752004E10
:1023E4006F206D6573736167650041542B434D47DE
:1023F400523D25640D002E002500256C64006850B4
:1024040061002D0020002564004300557275636847
:10241400616D69616E69652047534D0041542076B2
:1024240038006E6F776120776961646F6D6F7363D5
:102434000054656D70657261747572613A2025642B
:102444002E25642043200A57696C676F746E6F737E
:10245400633A2025642E25642052480A4369736E2A
:1024640069656E69653A20256C642068504100579F
:102474007973796C616E696520736D7300373931D6
:08248400323739343037000013
:00000001FF
