:100000000C942A000C9447000C9447000C94470071
:100010000C9447000C9447000C9447000C94470044
:100020000C9447000C9447000C94420D0C9447002C
:100030000C9447000C94650D0C9447000C944700F9
:100040000C9447000C9447000C9447000C94470014
:100050000C94470011241FBECFE5D8E0DEBFCDBF12
:1000600011E0A0E6B0E0E6EFF2E202C005900D92EA
:10007000A83CB107D9F723E0A8ECB1E001C01D927C
:10008000A630B207E1F70E94CF0B0C9479110C94C3
:1000900000009B01AC018AB188698AB980B5866885
:1000A00080BD84E0220F331F441F551F8A95D1F76E
:1000B00060E072E18AE790E00E94BB0D8FEF820F53
:1000C00089B9DA01C9010197A109B109892F9A2FCC
:1000D000AB2FBB2780BD08955F9BFECF8CB10895E9
:1000E0008CB95D9BFECF0895CF93DF93EC0189918E
:1000F000882319F00E947000FACFDF91CF91089504
:100100008BBB85B38F7385BBAD9A82E08A95F1F77F
:1001100000C0AD988FE697E10197F1F700C00000AD
:1001200008958BBBAE9885B3806A85BB82E08A95C3
:10013000F1F700C0AD988FEC97E00197F1F700C0A0
:100140000000089584B3806E84BB8FEF8ABB8FE379
:100150009CE90197F1F700C0000088E30E9480004D
:100160008CE00E94800086E00E94800081E00E9476
:10017000800080E80C948000CF93DF93EC0189919C
:10018000882319F00E949100FACFDF91CF91089552
:10019000CF93DF93EA01813021F4862F8F7080683E
:1001A00005C0823029F4862F8F70806C0E948000F9
:1001B000CE01DF91CF910C94BC0081E00C948000C3
:1001C000BC0180E49FE10E94A70D862F603138F0CA
:1001D0007727CB01409797FD01969595879580B934
:1001E000089584EA86BF06B607FEFDCF089584E928
:1001F00086BF06B604FCFDCF089583B984E886BFA8
:1002000006B607FEFDCF089520E4829FC0011124A9
:10021000846886BF06B607FEFDCF83B10895EF92CE
:10022000FF921F93CF93DF9300D000D0CDB7DEB7FE
:10023000142F2B833C836A8389830E94F100898178
:100240000E94FD006A81862F0E94FD002B81E22E14
:100250003C81F32E120F1E1531F0F70181917F01C1
:100260000E94FD00F8CF0F900F900F900F90DF913C
:10027000CF911F91FF90EF900C94F700EF92FF92B7
:100280001F93CF93DF9300D01F92CDB7DEB7F82E28
:10029000142F2A833B8369830E94F1008F2D0E94D3
:1002A000FD006981862F0E94FD000E94F10081E01F
:1002B0008F0D0E94FD0011502A81E22E3B81F32E0A
:1002C0001F3F59F081E0111101C080E00E9404013C
:1002D000F70181937F011150F3CF0F900F900F9092
:1002E000DF91CF911F91FF90EF900C94F700CF9387
:1002F000DF93CDB7DEB766970FB6F894DEBF0FBEBB
:10030000CDBF9E012F5F3F4F46E150E06AEA70E0AB
:100310008EEE90E00E943E01898190E0982F882720
:100320002A81822B9093D8018093D7018B8190E012
:10033000982F88272C81822B9093EA018093E901E2
:100340008D8190E0982F88272E81822B9093EC014D
:100350008093EB018F8190E0982F88272885822B4E
:100360009093E6018093E501898590E0982F882796
:100370002A85822B9093E0018093DF018B8590E0AA
:10038000982F88272C85822B9093DA018093D901AE
:100390008D8590E0982F88272E85822B9093F401ED
:1003A0008093F3018F8590E0982F88272889822BEE
:1003B0009093EE018093ED01898990E0982F882732
:1003C0002A89822B9093E8018093E7018B8990E042
:1003D000982F88272C89822B9093F6018093F50122
:1003E0008D8990E0982F88272E89822B9093D601B3
:1003F0008093D50166960FB6F894DEBF0FBECDBFD1
:10040000DF91CF910895CF93DF9300D01F92CDB7A6
:10041000DEB78EE28B839E012D5F3F4F41E050E0BF
:1004200064EF70E08EEE90E00E940F018FE097E2A3
:100430000197F1F700C000009E012F5F3F4F42E09F
:1004400050E066EF70E08EEE90E00E943E01898100
:1004500090E0A0E0B0E0BA2FA92F982F88272A813A
:10046000822B8093EF019093F001A093F101B09360
:10047000F2010F900F900F90DF91CF910895CF93DD
:10048000DF9300D000D0CDB7DEB784EF8C839E0120
:100490002C5F3F4F41E050E064EF70E08EEE90E063
:1004A0000E940F018FE19BEC0197F1F700C0000063
:1004B0009E012F5F3F4F43E050E066EF70E08EEE0D
:1004C00090E00E943E0129818A8190E0A0E0B0E0A6
:1004D000BA2FA92F982F8827A22B2B81822B55E08A
:1004E000B595A795979587955A95D1F78093DB0198
:1004F0009093DC01A093DD01B093DE010F900F908B
:100500000F900F90DF91CF910895CF92DF92EF92ED
:10051000FF920E9403028091D9019091DA0120910B
:10052000EF013091F0014091F1015091F201281B4F
:10053000390B41095109A091DF01B091E0010E94FE
:10054000FC0D6B017C016FE0F594E794D794C794A0
:100550006A95D1F76091F5017091F601882777FDD2
:100560008095982FEBE0660F771F881F991FEA95FB
:10057000D1F72091D5013091D601442737FD409520
:10058000542F2C0D3D1D4E1D5F1D0E94DD0D2C0DA9
:100590003D1D4E1D5F1D2093E1013093E20140930C
:1005A000E3015093E401CA01B901685F7F4F8F4FA7
:1005B0009F4FF4E09595879577956795FA95D1F7D4
:1005C000FF90EF90DF90CF9008954F925F926F92DF
:1005D0007F928F929F92AF92BF92CF92DF92EF92D3
:1005E000FF920F931F93CF93DF9300D000D0CDB72E
:1005F000DEB70E943F028090E1019090E201A0905E
:10060000E301B090E40180EA881A8FE0980AA1081B
:10061000B108A5019401C501B4010E948B0D2B0105
:100620003C010091D7011091D801A091EB01B0914C
:10063000EC010E94070E6B017C013DE0F594E7940C
:10064000D794C7943A95D1F7A091F301B091F401F2
:10065000A30192016CE055954795379527956A95CA
:10066000D1F70E94070EBB2797FDB095AB2FC80EA0
:10067000D91EEA1EFB1E92E0C90ED11CE11CF11C22
:10068000F2E0F594E794D794C794FA95D1F7A0E8EF
:10069000DA0EE11CF11CA091E501B091E601A70181
:1006A00096010E94FC0DDC01CB012FE0B695A795C9
:1006B000979587952A95D1F789839A83AB83BC83D5
:1006C0006801EE24D7FCE094FE2C32E0CC0CDD1C5B
:1006D000EE1CFF1C3A95D1F7A091ED01B091EE010F
:1006E000A30192010E94070E2B013C0147E1759482
:1006F0006794579447944A95D1F7A091E901B09136
:10070000EA01A50194010E94070E5BE0959587958B
:10071000779567955A95D1F7460E571E681E791E34
:10072000C40CD51CE61CF71CCC0CDD1CEE1CFF1CFD
:100730002091DB013091DC014091DD015091DE011F
:100740002C193D094E095F09AAE6B8E10E94FC0D8B
:1007500097FD0DC0660F771F881F991F29813A8169
:100760004B815C810E94BB0D49015A010CC029815B
:100770003A814B815C810E94BB0D49015A01880C72
:10078000991CAA1CBB1C9927B7FC9A958B2D7A2D16
:10079000692D9B01AC010E948B0D9B01AC01AEED5C
:1007A000BBE00E94FC0D6C01FF24D7FCF094EF2C01
:1007B000A3E4B3EEA50194010E940A0EBB2797FDA6
:1007C000B095AB2FC80ED91EEA1EFB1E9FECC90EBA
:1007D0009EE0D91EE11CF11C04E0F594E794D79447
:1007E000C7940A95D1F7C80CD91CEA1CFB1CC70199
:1007F000B6010F900F900F900F90DF91CF911F9146
:100800000F91FF90EF90DF90CF90BF90AF909F90AF
:100810008F907F906F905F904F900895FC01680FCC
:10082000791F80E048E1E617F70781F0219198E011
:10083000322F3827532F517030FD84278695513041
:1008400009F480682695915099F7EDCF08950F939C
:100850001F93CF93DF93CDB7DEB760970FB6F894B1
:10086000DEBF0FBECDBF90E1E0E6F0E0DE01119605
:1008700001900D929A95E1F7DB01EC9111969C9114
:10088000F0E0F92B803179F4DF01AE7FE3E0AA0FCD
:10089000BB1FEA95E1F7FB019681ECE0F0E0E91B74
:1008A000F109EA0FFB1FF7FF07C091E0DA019C9303
:1008B000F195E195F10902C0DA011C92883281F4C8
:1008C000DB0114968C91982F9076903649F086FF34
:1008D00002C0EE7F05C085FF02C0EC7F01C0E87F4B
:1008E000CF0144E0969587954A95E1F7D9018C931D
:1008F000EF70FF2781E090E08C0F9D1FE80FF91F3C
:100900008081D8018C9380E060960FB6F894DEBFAA
:100910000FBECDBFDF91CF911F910F910895882316
:1009200019F0719561957109442319F0319521955C
:100930003109621773073CF081E090E02617370712
:1009400024F080E008958FEF9FEF08950F931F9399
:10095000CF93DF93EC018B01B80188810E9441069F
:10096000888381508D3F30F4F8018081883211F006
:10097000803191F7DF91CF911F910F910895FF92F0
:100980000F931F93CF93DF93CDB7DEB729970FB6A1
:10099000F894DEBF0FBECDBF8FEF898707EF11E060
:1009A000F12C8985882301F182E0F816E9F0BE0177
:1009B0006F5F7F4FCE0109960E94A60489858E5FE6
:1009C000823090F0FE01319620E030E08191D80134
:1009D000A20FB31F8C932F5F3F4F28303105B1F723
:1009E000F394085F1F4FDDCF8F2D29960FB6F89433
:1009F000DEBF0FBECDBFDF91CF911F910F91FF9052
:100A00000895CF93DF93EC010E94FD0581110FC083
:100A1000BE0184EB0E94880681E00E941906C82F5F
:100A20000E94FD0581E0C11103C080E001C081E0AA
:100A3000DF91CF9108951F93CF93DF93182FEB0190
:100A40000E94FD0581110DC00E94F405882359F014
:100A5000BE0184E40E948806113039F00E94F70537
:100A600004C081E003C082E001C080E0DF91CF914B
:100A70001F9108954F925F926F927F928F929F92F3
:100A8000AF92BF92CF92DF92EF92FF920F931F939C
:100A9000CF93DF93CDB7DEB729970FB6F894DEBFBB
:100AA0000FBECDBF6C015B014A0189010E94FD05AB
:100AB000811124C0B6018EEB0E948806CE010196FA
:100AC0007C013E019AE0690E711C27010E943E06DE
:100AD000F70181937F01E615F705C1F769E070E042
:100AE000C2010E940E0481110BC09401A501B20144
:100AF000F60180810E94270480E003C081E001C0EC
:100B000083E029960FB6F894DEBF0FBECDBFDF910C
:100B1000CF911F910F91FF90EF90DF90CF90BF90FA
:100B2000AF909F908F907F906F905F904F900895BF
:100B30005F926F927F928F929F92AF92BF92CF926D
:100B4000DF92EF92FF920F931F93CF93DF93CDB776
:100B5000DEB729970FB6F894DEBF0FBECDBF582E73
:100B60006B015A0189010E94FD05811124C060E0DA
:100B700070E08EEB0E948806CE0101967C014E014A
:100B80009AE0890E911C37010E943E06F70181937D
:100B90007F01E815F905C1F769E070E0C3010E9423
:100BA0000E0481110AC09501A601B301852D0E9492
:100BB000270480E003C081E001C083E029960FB6DE
:100BC000F894DEBF0FBECDBFDF91CF911F910F9183
:100BD000FF90EF90DF90CF90BF90AF909F908F905D
:100BE0007F906F905F90089586B382700895C19A48
:100BF000B99A0895C198B9980895C198B99A8FEB98
:100C000093E00197F1F700C000009FB7F894B998FE
:100C1000E0EBEA95F1F786B39FBFEBE3F3E03197A2
:100C2000F1F700C00000B19B02C08270089581E01E
:100C300008959FB7F894B99A22E02A95F1F700C079
:100C40008111B99828E22A95F1F7B19B80E028E755
:100C50002A95F1F7B9989FBF0895CF93DF93C82FD6
:100C6000D8E08C2F81700E941906C6958111C0684A
:100C7000D150B9F78C2FDF91CF9108958FEF0C945D
:100C80002D06DF92EF92FF920F931F93CF93DF9386
:100C9000E82EEB010E94FD0581112FC080EF0E941C
:100CA0002D06F12C10E488EFD82ED10E81E00E94A1
:100CB0001906082F81E00E941906882319F00023E5
:100CC00061F01DC0011109C01E1528F0888180FF48
:100CD00004C0E11611F0F12E01E0802F0E941906E8
:100CE0009881969501119068988311501D11DECF5F
:100CF00021961111D8CF8F2D03C08FEF01C08EEF39
:100D0000DF91CF911F910F91FF90EF90DF900895A9
:100D1000FF920F931F93CF93DF93F82EEB010E9466
:100D2000FD05209769F085E50E942D068E01085F7C
:100D30001F4F89910E942D06C017D107D1F703C01C
:100D40008CEC0E942D068F2DDF91CF911F910F917A
:100D5000FF900C942D060F931F93CF93DF93CDB785
:100D6000DEB764970FB6F894DEBF0FBECDBF10920A
:100D7000FF021092FE029F938F9380E790E09F9373
:100D80008F938E010F5F1F4F1F930F930E94980E3A
:100D9000C8010E9474000F900F900F900F900F9059
:100DA0000F9064960FB6F894DEBF0FBECDBFDF91F3
:100DB000CF911F910F9108958CE790E00C947400EF
:100DC000CF93DF9300D000D0CDB7DEB72FEF84E311
:100DD0009CE0215080409040E1F700C0000010925C
:100DE000FF021092FE02E091FE02F091FF02E85F26
:100DF000FD4F80818D3049F0E091FE02F091FF02BD
:100E0000E85FFD4F80818A3051F48091FE0290911D
:100E1000FF0201969093FF028093FE02E4CF60E907
:100E200070E088E092E00E94510E892B09F457C0CF
:100E3000E091FE02F091FF02E85FFD4F80818C326D
:100E400051F08091FE029091FF0201969093FF0273
:100E50008093FE02EDCF8091FE029091FF020196F9
:100E60009093FF028093FE02FE013196CF01A09184
:100E7000FE02B091FF02A85FBD4F2C912D3099F07A
:100E8000A091FE02B091FF02A85FBD4F2C9121936B
:100E90002091FE023091FF022F5F3F4F3093FF02FF
:100EA0002093FE02E4CF0E941E0E9093CB0180930C
:100EB000CA01E8E0F2E0DF010D900020E9F7AD01A2
:100EC000415051094850524060E070E0CF010E940B
:100ED0003C0E1092FF021092FE0281E001C080E001
:100EE0000F900F900F900F90DF91CF910895EF9298
:100EF000FF920F931F93CF93DF93CDB7DEB7A397E6
:100F00000FB6F894DEBF0FBECDBF7B011092FF027B
:100F10001092FE029F938F9386E990E09F938F93A8
:100F20008E010F5F1F4F1F930F930E94980EC801F1
:100F30000E9474002FEF81EE94E021508040904099
:100F4000E1F700C000000F900F900F900F900F90EE
:100F50000F90E091FE02F091FF02E85FFD4F80816B
:100F60008E3309F054C01092FF021092FE02E8E0A6
:100F7000F2E0DF010D900020E9F7AD014150510989
:100F80004850524060E070E0CF010E943C0EC70123
:100F90000E9474008AE10E947000BFEFE2E5F7E072
:100FA000B150E040F040E1F700C000001092FF02B5
:100FB0001092FE02E8E0F2E0DF010D900020E9F778
:100FC000AD01415051094850524060E070E0CF01FE
:100FD0000E943C0EF80101900020E9F7AF0141505A
:100FE0005109401B510B60E070E0C8010E943C0EAB
:100FF0001092CC01A3960FB6F894DEBF0FBECDBF02
:10100000DF91CF911F910F91FF90EF900895209164
:10101000FE023091FF022F5F3F4F3093FF0220937B
:10102000FE0297CFCF93DF931092FF021092FE0241
:10103000E091FE02F091FF02E85FFD4F80818D306C
:1010400049F0E091FE02F091FF02E85FFD4F8081E0
:101050008A3051F48091FE029091FF0201969093A4
:10106000FF028093FE02E4CF80EC0E948000C0E08B
:10107000D0E0E091FE02F091FF02E85FFD4F808139
:101080008D30D1F0E091FE02F091FF02E85FFD4F5C
:1010900080810E9491008091FE029091FF02019652
:1010A0009093FF028093FE022196CF30D10509F77D
:1010B00080E80E948000DDCF1092FF021092FE02B5
:1010C000E8E0F2E0DF010D900020E9F7AD014150CA
:1010D00051094850524060E070E0CF01DF91CF915C
:1010E0000C943C0E8F929F92AF92BF92CF92DF9260
:1010F000EF92FF920F931F93CF93DF9300D0CDB762
:10110000DEB7E12CF12C98E0892E92E0992EF401C3
:1011100001900020E9F78F01015011090850124099
:1011200009F447C08FE99FE00197F1F700C0000084
:101130009FEFE91AF90AF40101900020E9F73197CD
:10114000E850F2400E171F07A1F588E0C82E82E094
:10115000D82EA12CB12CC60188509240801791073F
:1011600044F58A818983F60181916F018A8342E087
:1011700050E064EA70E0CE0101960E94430E892B94
:1011800051F3C5010196F2E0AF16B10481F40F905E
:101190000F90DF91CF911F910F91FF90EF90DF9013
:1011A000CF90BF90AF909F908F900C9412085C01ED
:1011B000D2CF8FEC97E00197F1F700C000009FEFCE
:1011C000E91AF90AE0E6EE16EAEEFE0608F49FCF09
:1011D0000F900F90DF91CF911F910F91FF90EF90A3
:1011E000DF90CF90BF90AF909F908F90089587EA47
:1011F00090E00E9474002FEF84E39CE02150804037
:101200009040E1F700C000006DEA70E088E092E0F5
:101210000E94510E892B09F479C00E94720880EA5D
:10122000E8E0F2E0DF011D928A95E9F7BFEF29E6D9
:1012300088E1B15020408040E1F700C000000E94EA
:10124000DD0040EB50E060E081E00E94C8009FEFCD
:10125000A4E3BCE09150A040B040E1F700C0000022
:101260008EEB90E00E9474000E9472082FEF89E6D6
:1012700098E1215080409040E1F700C000000E94BA
:10128000DD0049EC50E060E081E00E94C800AFEF73
:10129000B4E32CE0A150B0402040E1F700C00000D2
:1012A00080EC0E94800088ED90E00E9474000E9413
:1012B00072088FEF99E6A8E181509040A040E1F7D5
:1012C00000C000000E94DD0040EE50E060E081E0E0
:1012D0000E94C800BFEF24E38CE0B1502040804062
:1012E000E1F700C0000080EC0E9480008FEE90E0EB
:1012F0000E9474000E9472089FEFA9E6B8E1915025
:10130000A040B040E1F700C00000089582E091E005
:101310000E94BC006CCF0F931F93CF93DF932FEFEE
:1013200084E39CE0215080409040E1F700C0000041
:1013300068E071E088E092E00E94510E892B39F458
:101340004EE051E060E081E00E94C800B0C0109221
:10135000FF021092FE02E091FE02F091FF02E85FB0
:10136000FD4F80818D3049F0E091FE02F091FF0247
:10137000E85FFD4F80818E3651F48091FE0290919E
:10138000FF0201969093FF028093FE02E4CFE0916A
:10139000FE02F091FF02E85FFD4F80818C3251F038
:1013A0008091FE029091FF0201969093FF0280933C
:1013B000FE02EDCF8091FE029091FF020296909383
:1013C000FF028093FE02E1EBF2E0A091FE02B091F9
:1013D000FF02A85FBD4F8C9181938091FE02909196
:1013E000FF0201969093FF028093FE02A2E0EB3B86
:1013F000FA0759F78091FE029091FF0201969093AF
:10140000FF028093FE02E091FE02F091FF02E95F8D
:10141000FD4F80818A3071F780EC0E9480000FEBD5
:1014200012E0C0E0D0E0E091FE02F091FF02E85F40
:10143000FD4F80818D3039F1CF31D10521F1E0911F
:10144000FE02F091FF02E85FFD4F80810E94910053
:10145000E091FE02F091FF02E85FFD4F8081F8010C
:1014600081938F018091FE029091FF0201969093EB
:10147000FF028093FE022196C031D105A1F680E8DB
:101480000E948000D0CF1092FF021092FE02E8E08E
:10149000F2E0DF010D900020E9F7AD014150510964
:1014A0004850524060E070E0CF010E943C0E109224
:1014B000CC01DF91CF911F910F9108950F931F934E
:1014C000CF93DF93CDB7DEB72A970FB6F894DEBF80
:1014D0000FBECDBF9F938F9389E191E09F938F9330
:1014E0008E010F5F1F4F1F930F930E94980EC8012C
:1014F0000E9474000E948B090F900F900F900F9024
:101500000F900F902A960FB6F894DEBF0FBECDBF96
:10151000DF91CF911F910F910895B89AC0988FE3F2
:101520009CE90197F1F700C00000C09A0895B898AF
:10153000B099FECFB09BFECFB099FECF089588E062
:1015400090E0B09BFECF20E52A95F1F7B09B05C057
:101550002091C901220F216003C02091C901220FEF
:101560002093C901B099FECF0197009751F7809160
:10157000C90108950E948D0A0E94970A0E949F0A3D
:101580008093FD020E949F0A8093AE020E949F0AF0
:101590008093FC020E949F0A809305030E949F0A89
:1015A0008093AF020895CF93DF9300D000D01F92B5
:1015B000CDB7DEB75091FD028091AE024091FC02A2
:1015C000309105032091AF0290E0850F911D840FAB
:1015D000911D830F911D30E08217930739F042E08F
:1015E00051E06CE081E00E94C80025C08091FD02BE
:1015F0004AE0BE016F5F7F4F90E00E946B0EAE012C
:101600004F5F5F4F6AE081E00E94C80085E291E091
:101610000E94BC008091AE024AE0BE016F5F7F4F26
:1016200090E00E946B0ECE0101960E94BC0087E202
:1016300091E00E94BC002FEF89E698E121508040A4
:101640009040E1F700C000000F900F900F900F90B6
:101650000F90DF91CF9108950F931F93CF93DF9356
:10166000CDB7DEB7E2970FB6F894DEBF0FBECDBFA1
:101670006091000370910103809102039091030334
:1016800024E630E040E050E00E94DD0D5F934F9390
:101690003F932F9389E291E09F938F938E010F5F89
:1016A0001F4F1F930F930E94980EA80160E081E0E6
:1016B0000E94C8008DE291E00E94BC000FB6F89431
:1016C000DEBF0FBECDBFE2960FB6F894DEBF0FBEF1
:1016D000CDBFDF91CF911F910F910895DF92EF92CF
:1016E000FF920F931F93CF93DF9300D000D0CDB71D
:1016F000DEB7D82E8091B002882319F041E351E083
:1017000002C043E351E06D2D82E00E94C800809149
:10171000FB021F928F9305E311E01F930F937E014D
:1017200083E0E80EF11CFF92EF920E94980E61E0B8
:101730006D0DA70182E00E94C80063E06D0D45E2D7
:1017400051E082E00E94C8008091AC021F928F930A
:101750001F930F938E010F5F1F4F1F930F930E94D4
:10176000980E64E06D0DA80182E00E94C80066E05A
:101770006D0D48E351E082E00E94C8000FB6F89476
:10178000DEBF0FBECDBF0F900F900F900F90DF9177
:10179000CF911F910F91FF90EF90DF900895CF931D
:1017A000DF93CDB7DEB7E2970FB6F894DEBF0FBE7A
:1017B000CDBF1092FF021092FE028CE3EFEBF2E03D
:1017C000DF011D928A95E9F70E94A20060E875E2A8
:1017D00080E090E00E9449000E94BA0A84E690E00E
:1017E0000E94E0000E94770183B7886083BF83B7BF
:1017F000856083BF8BE68CBF89B7826089BF0E94FA
:10180000BF0480930403BFE72FE482E1B15020407E
:101810008040E1F700C0000078944AE351E060E0C6
:1018200081E00E94C8009FEFADE3B9E49150A04071
:10183000B040E1F700C000000E94DD004BE451E041
:1018400060E081E00E94C8000E94F7080E94DD006D
:1018500024E6C22ED12CE12CF12C35E6A32E31E06A
:10186000B32E8E010F5F1F4F4CE3842E53E0952E55
:101870000E9485026093A8027093A9028093AA0235
:101880009093AB020E94E502609300037093010302
:1018900080930203909303030E942C0B0E94D30AAF
:1018A0008091CC01813009F08EC00E94E00688232F
:1018B00009F485C00E94DD0041E551E060E081E06F
:1018C0000E94C8002FEF89E698E1215080409040A7
:1018D000E1F700C000000E94DD008091CA019091F4
:1018E000CB010E945E0AAFEFBDE329E4A150B040F6
:1018F0002040E1F700C0000060E671E08FEB92E06D
:101900000E94510E892B09F441C06090AE02709084
:10191000FD02609100037091010380910203909198
:101920000303A70196010E94DD0D5F934F933F9340
:101930002F931F926F921F927F928091AC021F9201
:101940008F938091FB021F928F93BF92AF921F9350
:101950000F930E94980E43EA51E060E081E00E94FC
:10196000C800B80181EB91E00E9477078FEF99E6FC
:10197000A8E181509040A040E1F700C000000E9423
:10198000DD000FB6F894DEBF0FBECDBF0E94DD00B4
:101990008091CA019091CB010E94AB064BEB51E0C4
:1019A00060E081E00E94C8000E9472089FEFA9E6F3
:1019B000B8E19150A040B040E1F700C000001092A3
:1019C000CC010E94DD00EFEBF2E0DF01282D1D923B
:1019D0002A95E9F78091AD02882309F449CF8091D7
:1019E0000702692D0E949B0D91110BC0E7EFF1E0FA
:1019F000119282E0E730F807D9F70E94BF04809384
:101A0000040380910702692D0E949B0D913029F4F7
:101A100060E070E081E00E941B0580910702692D63
:101A20000E949B0D923059F52CEA32E04BEF52E0C8
:101A300060EB72E087EF91E00E943A05811103C0EC
:101A40000E946E0B06C042E051E060E082E00E941E
:101A5000C8002CEA32E04BEF52E060EB72E08FEF0F
:101A600091E00E943A05811104C089E00E946E0B4A
:101A700006C042E051E069E082E00E94C800109296
:101A8000AD02F6CE1F920F920FB60F9211248F93D4
:101A90008091C8018F5F8093C801843680F081E017
:101AA0008093AD02809107028F5F8093070280913F
:101AB00007028C3310F0109207021092C8018F9128
:101AC0000F900FBE0F901F9018951F920F920FB698
:101AD0000F9211248F939F93EF93FF93E091FE0257
:101AE000F091FF028CB1E85FFD4F80838091FE0290
:101AF0009091FF0201969093FF028093FE0281E095
:101B00008093CC01FF91EF919F918F910F900FBE29
:101B10000F901F901895DB018F939F930E94FC0DEF
:101B2000BF91AF91A29F800D911DA39F900DB29F79
:101B3000900D11240895991B79E004C0991F961700
:101B400008F0961B881F7A95C9F780950895AA1BFF
:101B5000BB1B51E107C0AA1FBB1FA617B70710F098
:101B6000A61BB70B881F991F5A95A9F780959095CA
:101B7000BC01CD010895A1E21A2EAA1BBB1BFD01D9
:101B80000DC0AA1FBB1FEE1FFF1FA217B307E4075C
:101B9000F50720F0A21BB30BE40BF50B661F771FB4
:101BA000881F991F1A9469F7609570958095909594
:101BB0009B01AC01BD01CF010895052E97FB1EF4DA
:101BC00000940E94F40D57FD07D00E94BB0D07FC46
:101BD00003D04EF40C94F40D50954095309521951A
:101BE0003F4F4F4F5F4F0895909580957095619549
:101BF0007F4F8F4F9F4F08950E940F0EA59F900D0E
:101C0000B49F900DA49F800D911D11240895B7FFDE
:101C10000C94FC0D0E94FC0D821B930B0895A29F57
:101C2000B001B39FC001A39F700D811D1124911DB0
:101C3000B29F700D811D1124911D0895FC0188270C
:101C40009927E89421912032E9F3293010F02E30C1
:101C5000C8F32B3241F02D3239F4689404C00E944D
:101C6000760E820F911D219120532A30C0F31EF46D
:101C7000909581959F4F0895DC0101C06D9341506F
:101C80005040E0F70895FB01DC014150504030F036
:101C90008D910190801919F40020B9F7881B990BD8
:101CA0000895FB0151915523A9F0BF01DC014D912D
:101CB00045174111E1F759F4CD010190002049F099
:101CC0004D9140154111C9F3FB014111EFCF81E066
:101CD00090E001970895BB274A3031F4992322F40C
:101CE000BDE2909581959F4F0C947F0E7AE0979F6F
:101CF000902D879F802D910D11240895BB27FB0106
:101D00005527AA27880F991FAA1FA41710F0A41BF4
:101D100083955051B9F7A05DAA3308F0A95DA1934E
:101D2000009779F7B111B1931192CB010C94A210E5
:101D3000AEE0B0E0EEE9FEE00C9450110D891E8992
:101D400086E08C831A8309838FEF9FE79E838D83C0
:101D5000AE01475E5F4F6F89788DCE0101960E947C
:101D6000BA0EEF81F885E00FF11F10822E96E4E0A5
:101D70000C946C11ACE0B0E0E0ECFEE00C9442118D
:101D80007C016B018A01FC0117821682838181FF2D
:101D9000BDC1CE0101964C01F7019381F60193FD7F
:101DA000859193FF81916F01882309F4ABC185323E
:101DB00039F493FD859193FF81916F01853229F468
:101DC000B70190E00E94B210E7CF512C312C20E0F7
:101DD0002032A0F48B3269F030F4803259F0833233
:101DE00069F420612CC08D3239F0803339F42160E0
:101DF00026C02260246023C0286021C027FD27C0A0
:101E000030ED380F3A3078F426FF06C0FAE05F9ED6
:101E1000300D1124532E13C08AE0389E300D11244A
:101E2000332E20620CC08E3221F426FD6BC120645B
:101E300006C08C3611F4206802C0883641F4F601E1
:101E400093FD859193FF81916F018111C1CF982FEF
:101E50009F7D9554933028F40C5F1F4FFFE3F98367
:101E60000DC0833631F0833771F0833509F05BC0E4
:101E700022C0F801808189830E5F1F4F4424439460
:101E8000512C540115C03801F2E06F0E711CF8019D
:101E9000A080B18026FF03C0652D70E002C06FEF07
:101EA0007FEFC5012C870E9497102C0183012C85A0
:101EB0002F77222E17C03801F2E06F0E711CF80147
:101EC000A080B18026FF03C0652D70E002C06FEFD7
:101ED0007FEFC5012C870E948C102C012C85206877
:101EE000222E830123FC1BC0832D90E04816590647
:101EF000B0F4B70180E290E00E94B2103A94F4CFBF
:101F0000F50127FC859127FE81915F01B70190E0E3
:101F10000E94B21031103A94F1E04F1A5108411466
:101F2000510471F7E5C0843611F0893639F5F801AE
:101F300027FF07C060817181828193810C5F1F4FF1
:101F400008C060817181882777FD8095982F0E5F8A
:101F50001F4F2F76B22E97FF09C0909580957095F0
:101F600061957F4F8F4F9F4F2068B22E2AE030E05F
:101F7000A4010E94E410A82EA81844C0853729F4B3
:101F80002F7EB22E2AE030E025C0F22FF97FBF2E3F
:101F90008F36C1F018F4883579F0B4C0803719F065
:101FA000883721F0AFC02F2F2061B22EB4FE0DC0B4
:101FB0008B2D8460B82E09C024FF0AC09F2F966025
:101FC000B92E06C028E030E005C020E130E002C0B4
:101FD00020E132E0F801B7FE07C0608171818281A3
:101FE00093810C5F1F4F06C06081718180E090E09B
:101FF0000E5F1F4FA4010E94E410A82EA818FB2D0D
:10200000FF77BF2EB6FE0BC02B2D2E7FA51450F4EC
:10201000B4FE0AC0B2FC08C02B2D2E7E05C07A2C5F
:102020002B2D03C07A2C01C0752C24FF0DC0FE019E
:10203000EA0DF11D8081803311F4297E09C022FF51
:1020400006C07394739404C0822F867809F0739449
:1020500023FD13C020FF06C05A2C731418F4530C30
:102060005718732C731468F4B70180E290E02C8742
:102070000E94B21073942C85F5CF731410F43718A6
:1020800001C0312C24FF12C0B70180E390E02C87FF
:102090000E94B2102C8522FF17C021FF03C088E5E3
:1020A00090E002C088E790E0B7010CC0822F8678EC
:1020B00059F021FD02C080E201C08BE227FD8DE2D4
:1020C000B70190E00E94B210A51438F4B70180E384
:1020D00090E00E94B2105A94F7CFAA94F401EA0D4E
:1020E000F11D8081B70190E00E94B210A110F5CFE0
:1020F000332009F451CEB70180E290E00E94B21083
:102100003A94F6CFF7018681978102C08FEF9FEF57
:102110002C96E2E10C945E11FC0105906150704038
:102120000110D8F7809590958E0F9F1F0895FC01A0
:102130006150704001900110D8F7809590958E0FF6
:102140009F1F0895DC01FC01672F71917723E1F750
:10215000329704C07C916D9370836291AE17BF0774
:10216000C8F308950F931F93CF93DF93182F092F70
:10217000EB018B8181FD03C08FEF9FEF20C082FFB9
:1021800010C04E815F812C813D81421753077CF442
:10219000E881F9819F012F5F3F4F398328831083A6
:1021A00006C0E885F985812F0995892B29F72E81AD
:1021B0003F812F5F3F4F3F832E83812F902FDF91F1
:1021C000CF911F910F910895FA01AA27283051F15C
:1021D000203181F1E8946F936E7F6E5F7F4F8F4F58
:1021E0009F4FAF4FB1E03ED0B4E03CD0670F781FB7
:1021F000891F9A1FA11D680F791F8A1F911DA11D9C
:102200006A0F711D811D911DA11D20D009F46894D4
:102210003F912AE0269F11243019305D3193DEF67C
:10222000CF010895462F4770405D4193B3E00FD032
:10223000C9F7F6CF462F4F70405D4A3318F0495D1D
:1022400031FD4052419302D0A9F7EACFB4E0A69500
:102250009795879577956795BA95C9F70097610522
:10226000710508959B01AC010A2E06945795479578
:1022700037952795BA95C9F7620F731F841F951F6D
:10228000A01D08952F923F924F925F926F927F927E
:102290008F929F92AF92BF92CF92DF92EF92FF9276
:1022A0000F931F93CF93DF93CDB7DEB7CA1BDB0B22
:1022B0000FB6F894DEBF0FBECDBF09942A883988C7
:1022C00048885F846E847D848C849B84AA84B984CE
:1022D000C884DF80EE80FD800C811B81AA81B981DA
:1022E000CE0FD11D0FB6F894DEBF0FBECDBFED01EE
:0622F0000895F894FFCFF1
:1022F600000101020203040405060607070809098E
:1023060041542B434D47443D25640D0041542B4316
:102316004D4744413D2244454C20414C4C220D0042
:10232600434D54493A0041542B434D47533D2225D2
:1023360073220D000D0A00415445300D004F4B002D
:10234600547279622074656B73746F7779004154A7
:102356002B434D47463D310D004A616B6F73632039
:102366007379676E616C750041542B4353510D00B0
:102376004B6F6D756E696B61747920736D73004177
:10238600542B434E4D493D312C312C302C302C31C1
:102396000D004572726F72002B434D4752004E6F0F
:1023A600206D6573736167650041542B434D475239
:1023B6003D25640D002E002500256C6400685061E3
:1023C600002D002000256400430055727563686186
:1023D6006D69616E69652047534D0041542076341E
:1023E600006E6F776120776961646F6D6F7363004C
:1023F6004D6561730054656D7065726174757261C7
:102406003A2025642E25642043200A57696C676F9D
:10241600746E6F73633A2025642E25642052480A31
:102426004369736E69656E69653A20256C64206838
:10243600504100577973796C616E696520736D73CD
:102446000037393132373934303700557375776193
:082456006E696520736D7300CF
:00000001FF
