:100000000C942A000C9447000C9447000C94470071
:100010000C9447000C9447000C9447000C94470044
:100020000C9447000C9447000C94360D0C94470038
:100030000C9447000C94590D0C9447000C94470005
:100040000C9447000C9447000C9447000C94470014
:100050000C94470011241FBECFE5D8E0DEBFCDBF12
:1000600011E0A0E6B0E0EEEDF2E202C005900D92E4
:10007000A43CB107D9F723E0A4ECB1E001C01D9284
:10008000A230B207E1F70E94CE0B0C946D110C94D4
:1000900000009B01AC018AB188698AB980B5866885
:1000A00080BD84E0220F331F441F551F8A95D1F76E
:1000B00060E072E18AE790E00E94AF0D8FEF820F5F
:1000C00089B9DA01C9010197A109B109892F9A2FCC
:1000D000AB2FBB2780BD08955F9BFECF8CB10895E9
:1000E0008CB95D9BFECF0895CF93DF93EC0189918E
:1000F000882319F00E947000FACFDF91CF91089504
:100100008BBB85B38F7385BBAD9A82E08A95F1F77F
:1001100000C0AD988FE697E10197F1F700C00000AD
:1001200008958BBBAE9885B3806A85BB82E08A95C3
:10013000F1F700C0AD988FEC97E00197F1F700C0A0
:100140000000089584B3806E84BB8FEF8ABB8FE379
:100150009CE90197F1F700C0000088E30E9480004D
:100160008CE00E94800086E00E94800081E00E9476
:10017000800080E80C948000CF93DF93EC0189919C
:10018000882319F00E949100FACFDF91CF91089552
:10019000CF93DF93EA01813021F4862F8F7080683E
:1001A00005C0823029F4862F8F70806C0E948000F9
:1001B000CE01DF91CF910C94BC0081E00C948000C3
:1001C000BC0180E49FE10E949B0D862F603138F0D6
:1001D0007727CB01409797FD01969595879580B934
:1001E000089584EA86BF06B607FEFDCF089584E928
:1001F00086BF06B604FCFDCF089583B984E886BFA8
:1002000006B607FEFDCF089520E4829FC0011124A9
:10021000846886BF06B607FEFDCF83B10895EF92CE
:10022000FF921F93CF93DF9300D000D0CDB7DEB7FE
:10023000142F2B833C836A8389830E94F100898178
:100240000E94FD006A81862F0E94FD002B81E22E14
:100250003C81F32E120F1E1531F0F70181917F01C1
:100260000E94FD00F8CF0F900F900F900F90DF913C
:10027000CF911F91FF90EF900C94F700EF92FF92B7
:100280001F93CF93DF9300D01F92CDB7DEB7F82E28
:10029000142F2A833B8369830E94F1008F2D0E94D3
:1002A000FD006981862F0E94FD000E94F10081E01F
:1002B0008F0D0E94FD0011502A81E22E3B81F32E0A
:1002C0001F3F59F081E0111101C080E00E9404013C
:1002D000F70181937F011150F3CF0F900F900F9092
:1002E000DF91CF911F91FF90EF900C94F700CF9387
:1002F000DF93CDB7DEB766970FB6F894DEBF0FBEBB
:10030000CDBF9E012F5F3F4F46E150E06AEA70E0AB
:100310008EEE90E00E943E01898190E0982F882720
:100320002A81822B9093D4018093D3018B8190E01A
:10033000982F88272C81822B9093E6018093E501EA
:100340008D8190E0982F88272E81822B9093E80151
:100350008093E7018F8190E0982F88272885822B52
:100360009093E2018093E101898590E0982F88279E
:100370002A85822B9093DC018093DB018B8590E0B2
:10038000982F88272C85822B9093D6018093D501B6
:100390008D8590E0982F88272E85822B9093F001F1
:1003A0008093EF018F8590E0982F88272889822BF2
:1003B0009093EA018093E901898990E0982F88273A
:1003C0002A89822B9093E4018093E3018B8990E04A
:1003D000982F88272C89822B9093F2018093F1012A
:1003E0008D8990E0982F88272E89822B9093D201B7
:1003F0008093D10166960FB6F894DEBF0FBECDBFD5
:10040000DF91CF910895CF93DF9300D01F92CDB7A6
:10041000DEB78EE28B839E012D5F3F4F41E050E0BF
:1004200064EF70E08EEE90E00E940F018FE097E2A3
:100430000197F1F700C000009E012F5F3F4F42E09F
:1004400050E066EF70E08EEE90E00E943E01898100
:1004500090E0A0E0B0E0BA2FA92F982F88272A813A
:10046000822B8093EB019093EC01A093ED01B0936C
:10047000EE010F900F900F90DF91CF910895CF93E1
:10048000DF9300D000D0CDB7DEB784EF8C839E0120
:100490002C5F3F4F41E050E064EF70E08EEE90E063
:1004A0000E940F018FE19BEC0197F1F700C0000063
:1004B0009E012F5F3F4F43E050E066EF70E08EEE0D
:1004C00090E00E943E0129818A8190E0A0E0B0E0A6
:1004D000BA2FA92F982F8827A22B2B81822B55E08A
:1004E000B595A795979587955A95D1F78093D7019C
:1004F0009093D801A093D901B093DA010F900F9097
:100500000F900F90DF91CF910895CF92DF92EF92ED
:10051000FF920E9403028091D5019091D601209113
:10052000EB013091EC014091ED015091EE01281B5F
:10053000390B41095109A091DB01B091DC010E9406
:10054000F00D6B017C016FE0F594E794D794C794AC
:100550006A95D1F76091F1017091F201882777FDDA
:100560008095982FEBE0660F771F881F991FEA95FB
:10057000D1F72091D1013091D201442737FD409528
:10058000542F2C0D3D1D4E1D5F1D0E94D10D2C0DB5
:100590003D1D4E1D5F1D2093DD013093DE01409314
:1005A000DF015093E001CA01B901685F7F4F8F4FAF
:1005B0009F4FF4E09595879577956795FA95D1F7D4
:1005C000FF90EF90DF90CF9008954F925F926F92DF
:1005D0007F928F929F92AF92BF92CF92DF92EF92D3
:1005E000FF920F931F93CF93DF9300D000D0CDB72E
:1005F000DEB70E943F028090DD019090DE01A09066
:10060000DF01B090E00180EA881A8FE0980AA10823
:10061000B108A5019401C501B4010E947F0D2B0111
:100620003C010091D3011091D401A091E701B09158
:10063000E8010E94FB0D6B017C013DE0F594E7941D
:10064000D794C7943A95D1F7A091EF01B091F001FA
:10065000A30192016CE055954795379527956A95CA
:10066000D1F70E94FB0DBB2797FDB095AB2FC80EAD
:10067000D91EEA1EFB1E92E0C90ED11CE11CF11C22
:10068000F2E0F594E794D794C794FA95D1F7A0E8EF
:10069000DA0EE11CF11CA091E101B091E201A70189
:1006A00096010E94F00DDC01CB012FE0B695A795D5
:1006B000979587952A95D1F789839A83AB83BC83D5
:1006C0006801EE24D7FCE094FE2C32E0CC0CDD1C5B
:1006D000EE1CFF1C3A95D1F7A091E901B091EA0117
:1006E000A30192010E94FB0D2B013C0147E175948F
:1006F0006794579447944A95D1F7A091E501B0913A
:10070000E601A50194010E94FB0D5BE0959587959C
:10071000779567955A95D1F7460E571E681E791E34
:10072000C40CD51CE61CF71CCC0CDD1CEE1CFF1CFD
:100730002091D7013091D8014091D9015091DA012F
:100740002C193D094E095F09AAE6B8E10E94F00D97
:1007500097FD0DC0660F771F881F991F29813A8169
:100760004B815C810E94AF0D49015A010CC0298167
:100770003A814B815C810E94AF0D49015A01880C7E
:10078000991CAA1CBB1C9927B7FC9A958B2D7A2D16
:10079000692D9B01AC010E947F0D9B01AC01AEED68
:1007A000BBE00E94F00D6C01FF24D7FCF094EF2C0D
:1007B000A3E4B3EEA50194010E94FE0DBB2797FDB3
:1007C000B095AB2FC80ED91EEA1EFB1E9FECC90EBA
:1007D0009EE0D91EE11CF11C04E0F594E794D79447
:1007E000C7940A95D1F7C80CD91CEA1CFB1CC70199
:1007F000B6010F900F900F900F90DF91CF911F9146
:100800000F91FF90EF90DF90CF90BF90AF909F90AF
:100810008F907F906F905F904F900895FC01680FCC
:10082000791F80E048E1E617F70781F0219198E011
:10083000322F3827532F517030FD84278695513041
:1008400009F480682695915099F7EDCF08950F939C
:100850001F93CF93DF93CDB7DEB760970FB6F894B1
:10086000DEBF0FBECDBF90E1E0E6F0E0DE01119605
:1008700001900D929A95E1F7DB01EC9111969C9114
:10088000F0E0F92B803179F4DF01AE7FE3E0AA0FCD
:10089000BB1FEA95E1F7FB019681ECE0F0E0E91B74
:1008A000F109EA0FFB1FF7FF07C091E0DA019C9303
:1008B000F195E195F10902C0DA011C92883281F4C8
:1008C000DB0114968C91982F9076903649F086FF34
:1008D00002C0EE7F05C085FF02C0EC7F01C0E87F4B
:1008E000CF0144E0969587954A95E1F7D9018C931D
:1008F000EF70FF2781E090E08C0F9D1FE80FF91F3C
:100900008081D8018C9380E060960FB6F894DEBFAA
:100910000FBECDBFDF91CF911F910F910895882316
:1009200019F0719561957109442319F0319521955C
:100930003109621773073CF081E090E02617370712
:1009400024F080E008958FEF9FEF08950F931F9399
:10095000CF93DF93EC018B01B80188810E9441069F
:10096000888381508D3F30F4F8018081883211F006
:10097000803191F7DF91CF911F910F910895FF92F0
:100980000F931F93CF93DF93CDB7DEB729970FB6A1
:10099000F894DEBF0FBECDBF8FEF898703EF11E064
:1009A000F12C8985882301F182E0F816E9F0BE0177
:1009B0006F5F7F4FCE0109960E94A60489858E5FE6
:1009C000823090F0FE01319620E030E08191D80134
:1009D000A20FB31F8C932F5F3F4F28303105B1F723
:1009E000F394085F1F4FDDCF8F2D29960FB6F89433
:1009F000DEBF0FBECDBFDF91CF911F910F91FF9052
:100A00000895CF93DF93EC010E94FD0581110FC083
:100A1000BE0184EB0E94880681E00E941906C82F5F
:100A20000E94FD0581E0C11103C080E001C081E0AA
:100A3000DF91CF9108951F93CF93DF93182FEB0190
:100A40000E94FD0581110DC00E94F405882359F014
:100A5000BE0184E40E948806113039F00E94F70537
:100A600004C081E003C082E001C080E0DF91CF914B
:100A70001F9108954F925F926F927F928F929F92F3
:100A8000AF92BF92CF92DF92EF92FF920F931F939C
:100A9000CF93DF93CDB7DEB729970FB6F894DEBFBB
:100AA0000FBECDBF6C015B014A0189010E94FD05AB
:100AB000811124C0B6018EEB0E948806CE010196FA
:100AC0007C013E019AE0690E711C27010E943E06DE
:100AD000F70181937F01E615F705C1F769E070E042
:100AE000C2010E940E0481110BC09401A501B20144
:100AF000F60180810E94270480E003C081E001C0EC
:100B000083E029960FB6F894DEBF0FBECDBFDF910C
:100B1000CF911F910F91FF90EF90DF90CF90BF90FA
:100B2000AF909F908F907F906F905F904F900895BF
:100B30005F926F927F928F929F92AF92BF92CF926D
:100B4000DF92EF92FF920F931F93CF93DF93CDB776
:100B5000DEB729970FB6F894DEBF0FBECDBF582E73
:100B60006B015A0189010E94FD05811124C060E0DA
:100B700070E08EEB0E948806CE0101967C014E014A
:100B80009AE0890E911C37010E943E06F70181937D
:100B90007F01E815F905C1F769E070E0C3010E9423
:100BA0000E0481110AC09501A601B301852D0E9492
:100BB000270480E003C081E001C083E029960FB6DE
:100BC000F894DEBF0FBECDBFDF91CF911F910F9183
:100BD000FF90EF90DF90CF90BF90AF909F908F905D
:100BE0007F906F905F90089586B382700895C19A48
:100BF000B99A0895C198B9980895C198B99A8FEB98
:100C000093E00197F1F700C000009FB7F894B998FE
:100C1000E0EBEA95F1F786B39FBFEBE3F3E03197A2
:100C2000F1F700C00000B19B02C08270089581E01E
:100C300008959FB7F894B99A22E02A95F1F700C079
:100C40008111B99828E22A95F1F7B19B80E028E755
:100C50002A95F1F7B9989FBF0895CF93DF93C82FD6
:100C6000D8E08C2F81700E941906C6958111C0684A
:100C7000D150B9F78C2FDF91CF9108958FEF0C945D
:100C80002D06DF92EF92FF920F931F93CF93DF9386
:100C9000E82EEB010E94FD0581112FC080EF0E941C
:100CA0002D06F12C10E488EFD82ED10E81E00E94A1
:100CB0001906082F81E00E941906882319F00023E5
:100CC00061F01DC0011109C01E1528F0888180FF48
:100CD00004C0E11611F0F12E01E0802F0E941906E8
:100CE0009881969501119068988311501D11DECF5F
:100CF00021961111D8CF8F2D03C08FEF01C08EEF39
:100D0000DF91CF911F910F91FF90EF90DF900895A9
:100D1000FF920F931F93CF93DF93F82EEB010E9466
:100D2000FD05209769F085E50E942D068E01085F7C
:100D30001F4F89910E942D06C017D107D1F703C01C
:100D40008CEC0E942D068F2DDF91CF911F910F917A
:100D5000FF900C942D060F931F93CF93DF93CDB785
:100D6000DEB764970FB6F894DEBF0FBECDBF10920A
:100D7000FB021092FA029F938F9380E790E09F937B
:100D80008F938E010F5F1F4F1F930F930E948C0E46
:100D9000C8010E9474000F900F900F900F900F9059
:100DA0000F9064960FB6F894DEBF0FBECDBFDF91F3
:100DB000CF911F910F9108958CE790E00C947400EF
:100DC000CF93DF9300D000D0CDB7DEB72FEF84E311
:100DD0009CE0215080409040E1F700C0000010925C
:100DE000FB021092FA02E091FA02F091FB02EC5F32
:100DF000FD4F80818D3049F0E091FA02F091FB02C5
:100E0000EC5FFD4F80818A3051F48091FA0290911D
:100E1000FB0201969093FB028093FA02E4CF60E913
:100E200070E084E092E00E94450E892B09F457C0DF
:100E3000E091FA02F091FB02EC5FFD4F80818C3271
:100E400051F08091FA029091FB0201969093FB027F
:100E50008093FA02EDCF8091FA029091FB02019605
:100E60009093FB028093FA02FE013196CF01A0918C
:100E7000FA02B091FB02AC5FBD4F2C912D3099F07E
:100E8000A091FA02B091FB02AC5FBD4F2C9121936F
:100E90002091FA023091FB022F5F3F4F3093FB020B
:100EA0002093FA02E4CF0E94120E9093C701809320
:100EB000C601E4E0F2E0DF010D900020E9F7AD01AA
:100EC000415051094450524060E070E0CF010E940F
:100ED000300E1092FB021092FA0281E001C080E015
:100EE0000F900F900F900F90DF91CF910895EF9298
:100EF000FF920F931F93CF93DF93CDB7DEB7A397E6
:100F00000FB6F894DEBF0FBECDBF7B011092FB027F
:100F10001092FA029F938F9386E990E09F938F93AC
:100F20008E010F5F1F4F1F930F930E948C0EC801FD
:100F30000E9474002FEF81EE94E021508040904099
:100F4000E1F700C000000F900F900F900F900F90EE
:100F50000F90E091FA02F091FB02EC5FFD4F80816F
:100F60008E3309F054C01092FB021092FA02E4E0B2
:100F7000F2E0DF010D900020E9F7AD014150510989
:100F80004450524060E070E0CF010E94300EC70133
:100F90000E9474008AE10E947000BFEFE2E5F7E072
:100FA000B150E040F040E1F700C000001092FB02B9
:100FB0001092FA02E4E0F2E0DF010D900020E9F780
:100FC000AD01415051094450524060E070E0CF0102
:100FD0000E94300EF80101900020E9F7AF01415066
:100FE0005109401B510B60E070E0C8010E94300EB7
:100FF0001092C801A3960FB6F894DEBF0FBECDBF06
:10100000DF91CF911F910F91FF90EF900895209164
:10101000FA023091FB022F5F3F4F3093FB02209387
:10102000FA0297CFCF93DF931092FB021092FA024D
:10103000E091FA02F091FB02EC5FFD4F80818D3070
:1010400049F0E091FA02F091FB02EC5FFD4F8081E4
:101050008A3051F48091FA029091FB0201969093AC
:10106000FB028093FA02E4CF80EC0E948000C0E093
:10107000D0E0E091FA02F091FB02EC5FFD4F80813D
:101080008D30D1F0E091FA02F091FB02EC5FFD4F60
:1010900080810E9491008091FA029091FB0201965A
:1010A0009093FB028093FA022196CF30D10509F785
:1010B00080E80E948000DDCF1092FB021092FA02BD
:1010C000E4E0F2E0DF010D900020E9F7AD014150CE
:1010D00051094450524060E070E0CF01DF91CF9160
:1010E0000C94300E8F929F92AF92BF92CF92DF926C
:1010F000EF92FF920F931F93CF93DF9300D0CDB762
:10110000DEB7E12CF12C94E0892E92E0992EF401C7
:1011100001900020E9F78F0101501109045012409D
:1011200009F447C08FE99FE00197F1F700C0000084
:101130009FEFE91AF90AF40101900020E9F73197CD
:10114000E450F2400E171F07A1F584E0C82E82E09C
:10115000D82EA12CB12CC601845092408017910743
:1011600044F58A818983F60181916F018A8342E087
:1011700050E064EA70E0CE0101960E94370E892BA0
:1011800051F3C5010196F2E0AF16B10481F40F905E
:101190000F90DF91CF911F910F91FF90EF90DF9013
:1011A000CF90BF90AF909F908F900C9412085C01ED
:1011B000D2CF8FEC97E00197F1F700C000009FEFCE
:1011C000E91AF90AE0E6EE16EAEEFE0608F49FCF09
:1011D0000F900F90DF91CF911F910F91FF90EF90A3
:1011E000DF90CF90BF90AF909F908F90089587EA47
:1011F00090E00E9474002FEF84E39CE02150804037
:101200009040E1F700C000006DEA70E084E092E0F9
:101210000E94450E892B09F479C00E94720880EA69
:10122000E4E0F2E0DF011D928A95E9F7BFEF29E6DD
:1012300088E1B15020408040E1F700C000000E94EA
:10124000DD0040EB50E060E081E00E94C8009FEFCD
:10125000A4E3BCE09150A040B040E1F700C0000022
:101260008EEB90E00E9474000E9472082FEF89E6D6
:1012700098E1215080409040E1F700C000000E94BA
:10128000DD0049EC50E060E081E00E94C800AFEF73
:10129000B4E32CE0A150B0402040E1F700C00000D2
:1012A00080EC0E94800088ED90E00E9474000E9413
:1012B00072088FEF99E6A8E181509040A040E1F7D5
:1012C00000C000000E94DD0040EE50E060E081E0E0
:1012D0000E94C800BFEF24E38CE0B1502040804062
:1012E000E1F700C0000080EC0E9480008FEE90E0EB
:1012F0000E9474000E9472089FEFA9E6B8E1915025
:10130000A040B040E1F700C00000089582E091E005
:101310000E94BC006CCF0F931F93CF93DF932FEFEE
:1013200084E39CE0215080409040E1F700C0000041
:1013300068E071E084E092E00E94450E892B39F468
:101340004EE051E060E081E00E94C800B0C0109221
:10135000FB021092FA02E091FA02F091FB02EC5FBC
:10136000FD4F80818D3049F0E091FA02F091FB024F
:10137000EC5FFD4F80818E3651F48091FA0290919E
:10138000FB0201969093FB028093FA02E4CFE09176
:10139000FA02F091FB02EC5FFD4F80818C3251F03C
:1013A0008091FA029091FB0201969093FB02809348
:1013B000FA02EDCF8091FA029091FB02029690938F
:1013C000FB028093FA02EDEAF2E0A091FA02B091FA
:1013D000FB02AC5FBD4F8C9181938091FA0290919A
:1013E000FB0201969093FB028093FA02A2E0E73B96
:1013F000FA0759F78091FA029091FB0201969093B7
:10140000FB028093FA02E091FA02F091FB02ED5F99
:10141000FD4F80818A3071F780EC0E9480000BEBD9
:1014200012E0C0E0D0E0E091FA02F091FB02EC5F44
:10143000FD4F80818D3039F1CF31D10521F1E0911F
:10144000FA02F091FB02EC5FFD4F80810E94910057
:10145000E091FA02F091FB02EC5FFD4F8081F80110
:1014600081938F018091FA029091FB0201969093F3
:10147000FB028093FA022196C031D105A1F680E8E3
:101480000E948000D0CF1092FB021092FA02E4E09A
:10149000F2E0DF010D900020E9F7AD014150510964
:1014A0004450524060E070E0CF010E94300E109234
:1014B000C801DF91CF911F910F9108950F931F9352
:1014C000CF93DF93CDB7DEB72A970FB6F894DEBF80
:1014D0000FBECDBF9F938F9389E191E09F938F9330
:1014E0008E010F5F1F4F1F930F930E948C0EC80138
:1014F0000E9474000E948B090F900F900F900F9024
:101500000F900F902A960FB6F894DEBF0FBECDBF96
:10151000DF91CF911F910F9108958E9A96988FE346
:101520009CE90197F1F700C00000969A08958E9803
:101530008699FECF869BFECF8699FECF089588E0E0
:1015400090E0869BFECF20E52A95F1F7869B05C0AB
:101550002091C501220F216003C02091C501220FF7
:101560002093C5018699FECF0197009751F780918E
:10157000C5010895CF93DF9300D000D01F92CDB75F
:10158000DEB70E948D0A0E94970A0E949F0A8093EC
:10159000F9020E949F0A8093AA020E949F0A8093E8
:1015A000F8020E949F0A809301030E949F0A809381
:1015B000AB025091F9028091AA024091F802309159
:1015C00001032091AB0290E0850F911D840F911DC6
:1015D000830F911D30E08217930739F042E051E00C
:1015E00060E081E00E94C80025C08091F9024AE0D5
:1015F000BE016F5F7F4F90E00E945F0EAE014F5FB4
:101600005F4F6CE081E00E94C80085E291E00E949B
:10161000BC008091AA024AE0BE016F5F7F4F90E05C
:101620000E945F0ECE0101960E94BC0087E291E00D
:101630000E94BC002FEF84E39CE02150804090404A
:10164000E1F700C000000F900F900F900F900F90E7
:10165000DF91CF9108950F931F93CF93DF93CDB771
:10166000DEB7E2970FB6F894DEBF0FBECDBF609134
:10167000FC027091FD028091FE029091FF0224E62F
:1016800030E040E050E00E94D10D5F934F933F93D4
:101690002F9389E291E09F938F938E010F5F1F4FED
:1016A0001F930F930E948C0EA80160E081E00E94BE
:1016B000C8008DE291E00E94BC000FB6F894DEBF36
:1016C0000FBECDBFE2960FB6F894DEBF0FBECDBF02
:1016D000DF91CF911F910F910895DF92EF92FF92CA
:1016E0000F931F93CF93DF9300D000D0CDB7DEB719
:1016F000D82E8091AC02882319F041E351E002C05A
:1017000043E351E06D2D82E00E94C8008091F70212
:101710001F928F9305E311E01F930F937E0183E0E7
:10172000E80EF11CFF92EF920E948C0E61E06D0DAD
:10173000A70182E00E94C80063E06D0D45E251E020
:1017400082E00E94C8008091A8021F928F931F938D
:101750000F938E010F5F1F4F1F930F930E948C0EEC
:1017600064E06D0DA80182E00E94C80066E06D0D86
:1017700048E351E082E00E94C8000FB6F894DEBF53
:101780000FBECDBF0F900F900F900F90DF91CF91B4
:101790001F910F91FF90EF90DF900895CF93DF930B
:1017A000CDB7DEB7E2970FB6F894DEBF0FBECDBF60
:1017B0001092FB021092FA028CE3EBEBF2E0DF01F5
:1017C0001D928A95E9F70E94A20060E875E280E028
:1017D00090E00E94490084E690E00E94E0000E94B0
:1017E000770183B7886083BF83B7856083BF8BE64B
:1017F0008CBF89B7826089BF0E94BF0480930003B9
:10180000BFE72FE482E1B15020408040E1F700C003
:10181000000078944AE351E060E081E00E94C80053
:101820009FEFADE3B9E49150A040B040E1F700C0B4
:1018300000000E94DD004BE451E060E081E00E9486
:10184000C8000E94F7080E94DD0024E6C22ED12CB9
:10185000E12CF12C32E6A32E31E0B32E8E010F5F86
:101860001F4F4CE3842E53E0952E0E948502609317
:10187000A4027093A5028093A6029093A7020E94EF
:10188000E5026093FC027093FD028093FE02909348
:10189000FF020E942B0B0E94BA0A8091C80181307E
:1018A00009F085C00E94E006882309F47CC00E94EC
:1018B000DD004EE451E060E081E00E94C8002FEFBF
:1018C00089E698E1215080409040E1F700C0000097
:1018D0000E94DD008091C6019091C7010E945E0ABE
:1018E000AFEFBDE329E4A150B0402040E1F700C0D4
:1018F00000006DE571E08BEB92E00E94450E892BB4
:10190000C9F16091FC027091FD028091FE029091FC
:10191000FF02A70196010E94D10D5F934F933F9361
:101920002F938091A8021F928F938091F7021F92AC
:101930008F93BF92AF921F930F930E948C0E4FE92B
:1019400051E060E081E00E94C800B8018DEA91E0BA
:101950000E9477078FEF99E6A8E181509040A04060
:10196000E1F700C000000E94DD000FB6F894DEBF72
:101970000FBECDBF0E94DD008091C6019091C701CE
:101980000E94AB0647EB51E060E081E00E94C80096
:101990000E9472089FEFA9E6B8E19150A040B040C4
:1019A000E1F700C000001092C8010E94DD00EBEBDF
:1019B000F2E0DF01282D1D922A95E9F78091A90216
:1019C000882309F452CF80910302692D0E948F0D64
:1019D00091110BC0E3EFF1E0119282E0E330F807E0
:1019E000D9F70E94BF048093000380910302692D00
:1019F0000E948F0D913029F460E070E081E00E9438
:101A00001B0580910302692D0E948F0D923059F5BC
:101A100028EA32E047EF52E06CEA72E083EF91E0AF
:101A20000E943A05811103C00E946D0B06C042E07E
:101A300051E060E082E00E94C80028EA32E047EF0F
:101A400052E06CEA72E08BEF91E00E943A0581115E
:101A500004C089E00E946D0B06C042E051E069E0DD
:101A600082E00E94C8001092A902FFCE1F920F923E
:101A70000FB60F9211248F938091C4018F5F8093D2
:101A8000C401843680F081E08093A9028091030232
:101A90008F5F80930302809103028C3310F01092C9
:101AA00003021092C4018F910F900FBE0F901F90F0
:101AB00018951F920F920FB60F9211248F939F9338
:101AC000EF93FF93E091FA02F091FB028CB1EC5F8F
:101AD000FD4F80838091FA029091FB0201969093D2
:101AE000FB028093FA0281E08093C801FF91EF919D
:101AF0009F918F910F900FBE0F901F901895DB0153
:101B00008F939F930E94F00DBF91AF91A29F800D84
:101B1000911DA39F900DB29F900D11240895991BC4
:101B200079E004C0991F961708F0961B881F7A95D4
:101B3000C9F780950895AA1BBB1B51E107C0AA1FD6
:101B4000BB1FA617B70710F0A61BB70B881F991F5E
:101B50005A95A9F780959095BC01CD010895A1E211
:101B60001A2EAA1BBB1BFD010DC0AA1FBB1FEE1F17
:101B7000FF1FA217B307E407F50720F0A21BB30B62
:101B8000E40BF50B661F771F881F991F1A9469F7DE
:101B900060957095809590959B01AC01BD01CF013A
:101BA0000895052E97FB1EF400940E94E80D57FD42
:101BB00007D00E94AF0D07FC03D04EF40C94E80D43
:101BC00050954095309521953F4F4F4F5F4F089569
:101BD00090958095709561957F4F8F4F9F4F089599
:101BE0000E94030EA59F900DB49F900DA49F800DA1
:101BF000911D11240895B7FF0C94F00D0E94F00D73
:101C0000821B930B0895A29FB001B39FC001A39FB5
:101C1000700D811D1124911DB29F700D811D112425
:101C2000911D0895FC0188279927E894219120327D
:101C3000E9F3293010F02E30C8F32B3241F02D3269
:101C400039F4689404C00E946A0E820F911D21919C
:101C500020532A30C0F31EF4909581959F4F08952C
:101C6000DC0101C06D9341505040E0F70895FB0145
:101C7000DC014150504030F08D910190801919F4F1
:101C80000020B9F7881B990B0895FB01519155234A
:101C9000A9F0BF01DC014D9145174111E1F759F45D
:101CA000CD010190002049F04D9140154111C9F33B
:101CB000FB014111EFCF81E090E001970895BB2730
:101CC0004A3031F4992322F4BDE2909581959F4FDB
:101CD0000C94730E7AE0979F902D879F802D910D25
:101CE00011240895BB27FB015527AA27880F991FA8
:101CF000AA1FA41710F0A41B83955051B9F7A05D3B
:101D0000AA3308F0A95DA193009779F7B111B193B7
:101D10001192CB010C949610AEE0B0E0E2E9FEE047
:101D20000C9444110D891E8986E08C831A830983E3
:101D30008FEF9FE79E838D83AE01475E5F4F6F8974
:101D4000788DCE0101960E94AE0EEF81F885E00FEE
:101D5000F11F10822E96E4E00C946011ACE0B0E02C
:101D6000E4EBFEE00C9436117C016B018A01FC016E
:101D700017821682838181FFBDC1CE0101964C017D
:101D8000F7019381F60193FD859193FF81916F0196
:101D9000882309F4ABC1853239F493FD859193FF13
:101DA00081916F01853229F4B70190E00E94A6105D
:101DB000E7CF512C312C20E02032A0F48B3269F097
:101DC00030F4803259F0833269F420612CC08D32B6
:101DD00039F0803339F4216026C02260246023C0AA
:101DE000286021C027FD27C030ED380F3A3078F445
:101DF00026FF06C0FAE05F9E300D1124532E13C05B
:101E00008AE0389E300D1124332E20620CC08E32B1
:101E100021F426FD6BC1206406C08C3611F42068C5
:101E200002C0883641F4F60193FD859193FF8191BC
:101E30006F018111C1CF982F9F7D9554933028F465
:101E40000C5F1F4FFFE3F9830DC0833631F08337FA
:101E500071F0833509F05BC022C0F801808189836D
:101E60000E5F1F4F44244394512C540115C0380178
:101E7000F2E06F0E711CF801A080B18026FF03C054
:101E8000652D70E002C06FEF7FEFC5012C870E94C7
:101E90008B102C0183012C852F77222E17C038013F
:101EA000F2E06F0E711CF801A080B18026FF03C024
:101EB000652D70E002C06FEF7FEFC5012C870E9497
:101EC00080102C012C852068222E830123FC1BC04E
:101ED000832D90E048165906B0F4B70180E290E0F7
:101EE0000E94A6103A94F4CFF50127FC859127FEB5
:101EF00081915F01B70190E00E94A61031103A94E1
:101F0000F1E04F1A51084114510471F7E5C08436CD
:101F100011F0893639F5F80127FF07C0608171811A
:101F2000828193810C5F1F4F08C060817181882777
:101F300077FD8095982F0E5F1F4F2F76B22E97FF5B
:101F400009C090958095709561957F4F8F4F9F4FF9
:101F50002068B22E2AE030E0A4010E94D810A82EFA
:101F6000A81844C0853729F42F7EB22E2AE030E02D
:101F700025C0F22FF97FBF2E8F36C1F018F48835B7
:101F800079F0B4C0803719F0883721F0AFC02F2F17
:101F90002061B22EB4FE0DC08B2D8460B82E09C016
:101FA00024FF0AC09F2F9660B92E06C028E030E0BB
:101FB00005C020E130E002C020E132E0F801B7FEC8
:101FC00007C060817181828193810C5F1F4F06C0C1
:101FD0006081718180E090E00E5F1F4FA4010E943C
:101FE000D810A82EA818FB2DFF77BF2EB6FE0BC069
:101FF0002B2D2E7FA51450F4B4FE0AC0B2FC08C0ED
:102000002B2D2E7E05C07A2C2B2D03C07A2C01C0DF
:10201000752C24FF0DC0FE01EA0DF11D8081803377
:1020200011F4297E09C022FF06C07394739404C082
:10203000822F867809F0739423FD13C020FF06C019
:102040005A2C731418F4530C5718732C731468F427
:10205000B70180E290E02C870E94A61073942C8533
:10206000F5CF731410F4371801C0312C24FF12C0BF
:10207000B70180E390E02C870E94A6102C8522FFF8
:1020800017C021FF03C088E590E002C088E790E018
:10209000B7010CC0822F867859F021FD02C080E282
:1020A00001C08BE227FD8DE2B70190E00E94A610EF
:1020B000A51438F4B70180E390E00E94A6105A946A
:1020C000F7CFAA94F401EA0DF11D8081B70190E0E9
:1020D0000E94A610A110F5CF332009F451CEB7010C
:1020E00080E290E00E94A6103A94F6CFF701868134
:1020F000978102C08FEF9FEF2C96E2E10C94521172
:10210000FC010590615070400110D8F780959095C2
:102110008E0F9F1F0895FC016150704001900110C7
:10212000D8F7809590958E0F9F1F0895DC01FC01D4
:10213000672F71917723E1F7329704C07C916D93FB
:1021400070836291AE17BF07C8F308950F931F9372
:10215000CF93DF93182F092FEB018B8181FD03C0F3
:102160008FEF9FEF20C082FF10C04E815F812C81D6
:102170003D81421753077CF4E881F9819F012F5F6D
:102180003F4F39832883108306C0E885F985812F66
:102190000995892B29F72E813F812F5F3F4F3F8380
:1021A0002E83812F902FDF91CF911F910F91089552
:1021B000FA01AA27283051F1203181F1E8946F9378
:1021C0006E7F6E5F7F4F8F4F9F4FAF4FB1E03ED01E
:1021D000B4E03CD0670F781F891F9A1FA11D680FBC
:1021E000791F8A1F911DA11D6A0F711D811D911DEF
:1021F000A11D20D009F468943F912AE0269F112464
:102200003019305D3193DEF6CF010895462F4770C7
:10221000405D4193B3E00FD0C9F7F6CF462F4F7022
:10222000405D4A3318F0495D31FD4052419302D080
:10223000A9F7EACFB4E0A695979587957795679526
:10224000BA95C9F700976105710508959B01AC0126
:102250000A2E06945795479537952795BA95C9F74D
:10226000620F731F841F951FA01D08952F923F9228
:102270004F925F926F927F928F929F92AF92BF9296
:10228000CF92DF92EF92FF920F931F93CF93DF9342
:10229000CDB7DEB7CA1BDB0B0FB6F894DEBF0FBE9F
:1022A000CDBF09942A88398848885F846E847D84EC
:1022B0008C849B84AA84B984C884DF80EE80FD80EE
:1022C0000C811B81AA81B981CE0FD11D0FB6F89464
:0E22D000DEBF0FBECDBFED010895F894FFCF25
:1022DE0000010102020304040506060707080909A6
:1022EE0041542B434D47443D25640D0041542B432F
:1022FE004D4744413D2244454C20414C4C220D005B
:10230E00434D54493A0041542B434D47533D2225EA
:10231E0073220D000D0A00415445300D004F4B0045
:10232E00547279622074656B73746F7779004154BF
:10233E002B434D47463D310D004A616B6F73632051
:10234E007379676E616C750041542B4353510D00C8
:10235E004B6F6D756E696B61747920736D7300418F
:10236E00542B434E4D493D312C312C302C302C31D9
:10237E000D004572726F72002B434D4752004E6F27
:10238E00206D6573736167650041542B434D475251
:10239E003D25640D002E002500256C6400685061FB
:1023AE00002D00200025640043005572756368619E
:1023BE006D69616E69652047534D004154006E6F23
:1023CE00776120776961646F6D6F7363004D65612E
:1023DE00730054656D70657261747572613A202573
:1023EE00642E25642043200A57696C676F746E6FE4
:1023FE0073633A202E2E2E205248200A4369736EA4
:10240E0069656E69653A20256C64206850410057F5
:10241E007973796C616E696520736D73003739312C
:10242E003237393430370055737577616E696520F0
:04243E00736D730047
:00000001FF
